:100000000C9446000C9465000C9465000C946500FB
:100010000C9465000C947D0B0C9465000C946500A9
:100020000C946F080C947F0D0C9465000C94650083
:100030000C9465000C9465000C9445080C946500C4
:100040000C9465000C9465000C944B030C9487038E
:100050000C9465000C9465000C9465000C9465008C
:100060000C9465000C9465000C9465000C9465007C
:100070000C9465000C94030C0C9465000C946500C2
:100080000C9465000C9465000C94650011241FBE4F
:10009000CFEFD0E1DEBFCDBF1AE0A0E0B1E0E4EDEC
:1000A000FCE700E00BBF02C007900D92AE3AB1072B
:1000B000D9F71EE0AEEABAE001C01D92A435B1073F
:1000C000E1F70E9458060C94693E0C940000CF930F
:1000D000DF93CDB7DEB724970FB6F894DEBF0FBE1F
:1000E000CDBF0E9485018CEC0E94FD0184E40E943A
:1000F000FD0180E991E09A83898389819A81019742
:100100009A83898389819A812FEF8F3F9207A9F77C
:100110000E9485018CEC0E94FD018EEB0E94FD0186
:100120000E945F028B830E945F028C838C819927DF
:10013000382F22278B819927820F931FAA2797FD9B
:10014000A095BA2FBC01CD010E94D639DC01CB01AC
:1001500020E030E040E85DE3BC01CD010E945C3767
:10016000DC01CB0180933C0D90933D0DA0933E0D9F
:10017000B0933F0D80913C0D90913D0DA0913E0DAF
:10018000B0913F0DBC01CD0124960FB6F894DEBFAF
:100190000FBECDBFDF91CF910895CF93DF93CDB741
:1001A000DEB72A970FB6F894DEBF0FBECDBF1D8213
:1001B0001E821F8218861C821B821A8219820E944C
:1001C0006700DC01CB01BC01CD010E943F3ADC019C
:1001D000CB018D839E83AF83B8878D819E812AE07A
:1001E00030E0B9010E94E83D06979A8389838981AE
:1001F0009A819A87898789859A858230910519F134
:1002000089859A858330910558F489859A85009768
:1002100009F44FC089859A858130910561F02CC021
:1002200089859A8583309105B1F089859A858430D6
:100230009105C9F021C0A5E3B0E0E5E3F0E08081DD
:100240008F7E8C9336C0A5E3B0E0E5E3F0E08081DB
:100250008F7D8C932EC0A5E3B0E0E5E3F0E08081D4
:100260008F7B8C9326C0A5E3B0E0E5E3F0E09081BE
:100270008FE789238C931DC0A5E3B0E0E5E3F0E0B0
:1002800080818F7E8C93A5E3B0E0E5E3F0E0808190
:100290008F7D8C93A5E3B0E0E5E3F0E080818F7B78
:1002A0008C93A5E3B0E0E5E3F0E090818FE789234C
:1002B0008C9388E893E19C838B838B819C8101974D
:1002C0009C838B838B819C812FEF8F3F9207A9F7B3
:1002D000A5E3B0E0E5E3F0E0808180688C93A5E3DE
:1002E000B0E0E5E3F0E0808180648C93A5E3B0E0CA
:1002F000E5E3F0E0808180628C93A5E3B0E0E5E384
:10030000F0E0808180618C935ACFCF93DF93CDB79B
:10031000DEB722970FB6F894DEBF0FBECDBFAAE3BB
:10032000B0E0EAE3F0E0808180688C93ABE3B0E07A
:10033000EBE3F0E0808180688C93ABE3B0E0EBE32B
:10034000F0E090818FE789238C9388EB9BE09A8380
:10035000898389819A8101979A83898389819A8186
:100360002FEF8F3F9207A9F7ABE3B0E0EBE3F0E0AC
:10037000808180688C93AAE3B0E0EAE3F0E09081AA
:100380008FE789238C9388E290E09A83898389811F
:100390009A8101979A83898389819A812FEF8F3F70
:1003A0009207A9F7E9E3F0E080818823DCF3AAE370
:1003B000B0E0EAE3F0E0808180688C93ABE3B0E0EA
:1003C000EBE3F0E0808180688C9386E990E09A838B
:1003D000898389819A8101979A83898389819A8106
:1003E0002FEF8F3F9207A9F722960FB6F894DEBF42
:1003F0000FBECDBFDF91CF910895CF93DF93CDB7DF
:10040000DEB724970FB6F894DEBF0FBECDBF8C8346
:100410001B8241C0ABE3B0E0EBE3F0E090818FE7FB
:1004200089238C938C81282F33278B819927A901CD
:1004300002C0559547958A95E2F7CA018170907080
:10044000882341F0ABE3B0E0EBE3F0E0808180682B
:100450008C9308C0ABE3B0E0EBE3F0E090818FE772
:1004600089238C9388E290E09A83898389819A8199
:1004700001979A83898389819A815FEF8F3F9507DE
:10048000A9F7ABE3B0E0EBE3F0E0808180688C9308
:100490008B818F5F8B838B81883008F4BBCFABE37C
:1004A000B0E0EBE3F0E0808180688C9324960FB697
:1004B000F894DEBF0FBECDBFDF91CF910895CF93EB
:1004C000DF93CDB7DEB724970FB6F894DEBF0FBE2B
:1004D000CDBF1C821A8252C0ABE3B0E0EBE3F0E088
:1004E00090818FE789238C93ABE3B0E0EBE3F0E0FE
:1004F000808180688C93AAE3B0E0EAE3F0E0908129
:100500008FE789238C93E9E3F0E0908180E88923E9
:100510008B838B81882381F08A81282F332781E088
:1005200090E0022E02C0880F991F0A94E2F7982FDC
:100530008C81892B8C8310C08A81282F332781E0FE
:1005400090E0022E02C0880F991F0A94E2F7982FBC
:1005500090958C8189238C8382E389838981815062
:10056000898389818F3FD1F7AAE3B0E0EAE3F0E025
:10057000808180688C938A818F5F8A838A818830AA
:1005800008F4AACF8C81992724960FB6F894DEBF81
:100590000FBECDBFDF91CF9108950F931F93CF93DF
:1005A000DF93CDB7DEB725970FB6F894DEBF0FBE49
:1005B000CDBF6A837B838C839D8300E910E08A81B1
:1005C0009B81AC81BD81880F991FAA1FBB1F880F1B
:1005D000991FAA1FBB1F880F991FAA1FBB1F880F37
:1005E000991FAA1FBB1F9C01AD0180E090E8A0E706
:1005F000B0E0BC01CD010E94FC3DDA01C90181508F
:100600009927892F990F990BF801808309E210E04F
:100610008A819B81AC81BD81880F991FAA1FBB1F56
:10062000880F991FAA1FBB1F880F991FAA1FBB1FE6
:10063000880F991FAA1FBB1F9C01AD0180E090E8A5
:10064000A0E7B0E0BC01CD010E94FC3DDA01C90188
:100650008150F8018083EAE2F0E088E98083E5E9EF
:10066000F0E086E08083198289818093B20B8981D2
:100670008093B10B89818093340C89818093330CF2
:1006800025960FB6F894DEBF0FBECDBFDF91CF9198
:100690001F910F9108951F920F920FB60F92112480
:1006A0008F939F93EF93FF93CF93DF93CDB7DEB7F5
:1006B0002297DEBFCDBFECE2F0E080818A8380919B
:1006C000B10B982F9F5F8FEF892389838981809356
:1006D000B10B9091B20B8981891751F089819927CB
:1006E000FC01EF54F54F8A81808381E08093AE0A4C
:1006F0002296F894DEBFCDBFDF91CF91FF91EF91AD
:100700009F918F910F900FBE0F901F9018951F9281
:100710000F920FB60F9211248F939F93AF93BF93B5
:10072000EF93FF93CF93DF93CDB7DEB72197DEBF73
:10073000CDBF9091330C8091340C981791F080913B
:10074000340C8F5F8F77898389818093340CACE27E
:10075000B0E089819927FC01ED54F44F80818C939E
:1007600007C0AAE2B0E0EAE2F0E080818F7D8C93DE
:100770002196F894DEBFCDBFDF91CF91FF91EF912D
:10078000BF91AF919F918F910F900FBE0F901F90CF
:100790001895CF93DF93CDB7DEB721970FB6F894B6
:1007A000DEBF0FBECDBF9091B10B8091B20B9817F9
:1007B000D1F38091B20B982F9F5F8FEF89238983AC
:1007C00089818093B20B89819927FC01EF54F54F01
:1007D0008081992721960FB6F894DEBF0FBECDBF5A
:1007E000DF91CF910895CF93DF93CDB7DEB72297F6
:1007F0000FB6F894DEBF0FBECDBF8A838091330C55
:100800008F5F8F7789839091340C89818917D9F311
:1008100089819927FC01ED54F44F8A818083898175
:100820008093330CAAE2B0E0EAE2F0E080818062DB
:100830008C9322960FB6F894DEBF0FBECDBFDF912A
:10084000CF910895CF93DF93CDB7DEB722970FB640
:10085000F894DEBF0FBECDBF9091B10B8091B20B6B
:100860001A821982981721F081E090E09A83898397
:1008700089819A8122960FB6F894DEBF0FBECDBF54
:10088000DF91CF910895CF93DF93CDB7DEB760E0CE
:1008900072EC81E090E00E94CD02DF91CF9108954B
:1008A000CF93DF93CDB7DEB721970FB6F894DEBFB5
:1008B0000FBECDBF898321960FB6F894DEBF0FBE61
:1008C000CDBFDF91CF910895CF93DF93CDB7DEB742
:1008D00022970FB6F894DEBF0FBECDBF9A838983EF
:1008E00022960FB6F894DEBF0FBECDBFDF91CF9139
:1008F0000895CF93DF93CDB7DEB724970FB6F89462
:10090000DEBF0FBECDBF9C838B838B819C810E94F9
:10091000D73D01960E94B93C9A83898389819A8147
:10092000009729F480E091E00E94640410C08B815C
:100930009C8129813A81BC01C9010E94D03D8981F5
:100940009A810E94640489819A810E945C3D249668
:100950000FB6F894DEBF0FBECDBFDF91CF910895E3
:10096000CF93DF93CDB7DEB724970FB6F894DEBFF1
:100970000FBECDBF9A8389837C836B8324960FB689
:10098000F894DEBF0FBECDBFDF91CF910895CF9316
:10099000DF93CDB7DEB70E94C9039927DF91CF91CE
:1009A0000895CF93DF93CDB7DEB725970FB6F894B0
:1009B000DEBF0FBECDBF9C838B836D8319828D817B
:1009C00081508D838D818F3FE9F00E94220488231E
:1009D000E1F30E94C9038A838A818D3099F08A816C
:1009E0008A3081F089818F5F8983EB81FC818A81E4
:1009F00080838B819C8101969C838B83EB81FC811E
:100A00001082DDCF8981992725960FB6F894DEBF35
:100A10000FBECDBFDF91CF910895CF93DF93CDB7B8
:100A2000DEB7EDE2F0E080E58083EEE2F0E081E029
:100A30008083DF91CF910895CF93DF93CDB7DEB759
:100A400021970FB6F894DEBF0FBECDBF8983EFE2CA
:100A5000F0E089818083EEE2F0E080818823DCF79A
:100A600021960FB6F894DEBF0FBECDBFDF91CF91B8
:100A70000895CF93DF93CDB7DEB780E00E941C05C9
:100A8000EFE2F0E080819927DF91CF910895CF9335
:100A9000DF93CDB7DEB723970FB6F894DEBF0FBE56
:100AA000CDBF9A8389836B830AC00E943905E9818F
:100AB000FA81808389819A8101969A8389838B81C7
:100AC00081508B838B818F3F81F723960FB6F894EB
:100AD000DEBF0FBECDBFDF91CF910895CF93DF93DF
:100AE000CDB7DEB723970FB6F894DEBF0FBECDBFEC
:100AF0009A8389836B830BC0E981FA812081898184
:100B00009A8101969A838983822F0E941C058B818A
:100B100081508B838B818F3F79F723960FB6F894A2
:100B2000DEBF0FBECDBFDF91CF910895CF93DF938E
:100B3000CDB7DEB72E970FB6F894DEBF0FBECDBF90
:100B40009A8789877C876B875E874D878B859C8595
:100B50009A83898389859A859C838B838D859E85DD
:100B60009E838D838D819E8198878F83AB81BC818D
:100B7000E981FA818F819885019724F001900E9484
:100B80005D3EFACFBC83AB83FA83E98398878F837A
:100B90002E960FB6F894DEBF0FBECDBFDF91CF917A
:100BA0000895CF93DF93CDB7DEB72E970FB6F894A5
:100BB000DEBF0FBECDBF9A8789877C876B875E8734
:100BC0004D8789859A859A8389838B859C859C83AB
:100BD0008B838D859E859E838D838D819E81988755
:100BE0008F83AB81BC81E981FA818F8198850197E0
:100BF00024F00E94553E0192FACFBC83AB83FA8366
:100C0000E98398878F832E960FB6F894DEBF0FBEC8
:100C1000CDBFDF91CF910895CF93DF93CDB7DEB7EE
:100C200025970FB6F894DEBF0FBECDBF9C838B8394
:100C30006D831A8219820DC0CE0102962B813C81F0
:100C400041E050E0BC01C9010E94960589818F5F97
:100C5000898399818D81981778F325960FB6F8943A
:100C6000DEBF0FBECDBFDF91CF910895CF93DF934D
:100C7000CDB7DEB722970FB6F894DEBF0FBECDBF5B
:100C80009A838983000000000000000089819A8116
:100C900001979A83898389819A81009799F722968F
:100CA0000FB6F894DEBF0FBECDBFDF91CF91089590
:100CB0000F931F93CF93DF93CDB7DEB7AC970FB6EB
:100CC000F894DEBF0FBECDBF1A8A198A188A1F8614
:100CD0001A86198618868AE090E09E838D838FEFAE
:100CE0008A831F8A188E0E9404080E94F70985E0F3
:100CF0000E94B20D88E10FB6F89481BD11BC0FBE01
:100D00000E948611882339F48AE191E00E946404EC
:100D100081E0898701C019868985882309F448C044
:100D200088E591E00E946404ABE3B0E0EBE3F0E01F
:100D300080818E7F8C93ABE3B0E0EBE3F0E08081C9
:100D40008D7F8C9318A284E08F8F83EA8E8F1D8E07
:100D50001C8E1B8ECE01839666E00E94D1048823F0
:100D6000C1F0CE0183960E94B23D9AA789A78AA5B9
:100D70008A8F89A5898F89A589A38AA58AA3CE018F
:100D800049960E945411CE0181960E946D110E94D5
:100D90004B11ABE3B0E0EBE3F0E0808181608C933A
:100DA000ABE3B0E0EBE3F0E0808182608C931986E6
:100DB0000E947B0F0E94900F198200C00E94821037
:100DC0008981282F33273CA72BA78BA59CA50097AB
:100DD00031F02BA53CA524303105E9F0EFCF86E7B3
:100DE00091E00E9464041092450D0E9482100E94BE
:100DF00000108823D1F38091440D882339F48CE9C5
:100E000091E00E94640484E08983D8CF87EB91E06D
:100E10000E946404D3CF8EEC91E00E94640481E0D0
:100E20008093370C1C8A1B8A82E00E9496108E8762
:100E300083E00E9496108B878E850E94BC1000C0B4
:100E4000ABE3B0E0EBE3F0E080818B7F8C9384EF49
:100E500091E00E943606ABE3B0E0EBE3F0E0808186
:100E600084608C930E9482108B850E94BC100E942B
:100E7000DE10882309F446C088EE91E00E946404E5
:100E8000ABE3B0E0EBE3F0E080818D7F8C9384EF07
:100E900091E00E943606ABE3B0E0EBE3F0E0808146
:100EA00082608C930E94F8100E94F8108F831C823D
:100EB0001B820DC00B811C810E94F810F801E85CB8
:100EC000F34F80838B819C8101969C838B838F81E0
:100ED000282F33278B819C81821793075CF38091A5
:100EE000390C282F33278091380C9927B9010E949B
:100EF00099080E94281181E088878D819E81019741
:100F00009E838D830E94EE10882309F499CF8885F3
:100F1000882309F495CF88EF91E00E9464048091C2
:100F2000380C8D8B8091390C8E8B8E850E94BC1075
:100F300081E08093480D81E08093490D1092540D1B
:100F40001092530D1092550D82E08093560D8B89AF
:100F50009C8990934B0D80934A0D82E08093520DB3
:100F60008091350C9091360C8093570D85EB9CE069
:100F70009093590D8093580D10925A0D88E49DE07E
:100F80000E9431118A878A85882321F484E092E0C7
:100F90000E94640418868AE090E09E838D8350CF7F
:100FA000CF93DF93CDB7DEB7DF91CF910895CF9385
:100FB000DF93CDB7DEB7DF91CF910895CF93DF9365
:100FC000CDB7DEB7DF91CF910895CF93DF93CDB743
:100FD000DEB781E090E0DF91CF910895CF93DF936A
:100FE000CDB7DEB721970FB6F894DEBF0FBECDBFE9
:100FF000898381E090E021960FB6F894DEBF0FBEA2
:10100000CDBFDF91CF910895CF93DF93CDB7DEB7FA
:10101000A0E4B0E0E0E4F0E0808184608C93EAE357
:10102000F0E087E68083EBE3F0E087E48083E7E3AA
:10103000F0E087E88083E8E3F0E083E08083A1E3E9
:10104000B0E0E1E3F0E080818F7E8C930E94430466
:101050000E940D050E94FE0EAAE5B0E0EAE5F0E070
:10106000808180688C93AAE5B0E0EAE5F0E08081B9
:101070008F7B8C93A9E5B0E0E9E5F0E080818068A2
:101080008C937894DF91CF9108951F920F920FB6B1
:101090000F9211242F933F934F935F936F937F93FE
:1010A0008F939F93AF93BF93EF93FF93CF93DF9370
:1010B000CDB7DEB70E94590FDF91CF91FF91EF912D
:1010C000BF91AF919F918F917F916F915F914F9160
:1010D0003F912F910F900FBE0F901F9018951F9268
:1010E0000F920FB60F9211242F933F934F935F935C
:1010F0006F937F938F939F93AF93BF93EF93FF93E0
:10110000CF93DF93CDB7DEB70E948D10DF91CF91E3
:10111000FF91EF91BF91AF919F918F917F916F91CF
:101120005F914F913F912F910F900FBE0F901F90A5
:101130001895CF93DF93CDB7DEB72A970FB6F89403
:10114000DEBF0FBECDBF8F8368871E821D821A82CD
:1011500019828F81282F33273A87298789859A8595
:10116000863A910509F4C8C029853A85273A3105A0
:101170002CF589859A85823A910509F470C02985F4
:101180003A85233A31056CF489859A85803A910530
:1011900009F43FC029853A85213A310509F44CC04C
:1011A00003C189859A85843A910509F47EC0298511
:1011B0003A85253A31050CF08BC064C089859A8543
:1011C000893A910509F4AAC029853A852A3A310558
:1011D0006CF489859A85873A910509F493C029852D
:1011E0003A85283A310509F493C0DEC089859A858D
:1011F0008B3A910509F4B4C029853A852B3A31051B
:101200000CF492C089859A858C3A910509F4AEC098
:10121000CBC08885813041F4ABE3B0E0EBE3F0E094
:1012200080818D7F8C93C0C0ABE3B0E0EBE3F0E056
:10123000808182608C93B8C08885813041F4ABE3B3
:10124000B0E0EBE3F0E080818E7F8C93ADC0ABE348
:10125000B0E0EBE3F0E0808181608C93A5C08885ED
:10126000813041F4A5E3B0E0E5E3F0E080818F7EDA
:101270008C939AC0A5E3B0E0E5E3F0E08081806163
:101280008C9392C08885813041F4A5E3B0E0E5E31A
:10129000F0E080818F7D8C9387C0A5E3B0E0E5E32B
:1012A000F0E0808180628C937FC08885813041F43A
:1012B000A5E3B0E0E5E3F0E080818F7B8C9374C020
:1012C000A5E3B0E0E5E3F0E0808180648C936CC03E
:1012D0008885813049F4A5E3B0E0E5E3F0E0908152
:1012E0008FE789238C9360C0A5E3B0E0E5E3F0E0ED
:1012F000808180688C9358C080E00E94B20D9E83EC
:101300008D8352C081E00E94B20D9E838D834CC0BC
:1013100082E00E94B20D9E838D8346C083E00E94CE
:10132000B20D9E838D8340C0ABE3B0E0EBE3F0E011
:1013300080818D7F8C9380E593EC0E943606ABE331
:10134000B0E0EBE3F0E0808182608C9380E593EC89
:101350000E94360684E00E94B20D9E838D8324C0D5
:1013600085E00E94B20D9E838D831EC0ABE3B0E08A
:10137000EBE3F0E080818D7F8C9380E593EC0E941D
:101380003606ABE3B0E0EBE3F0E0808182608C9363
:1013900080E593EC0E943606E3E3F0E08081992734
:1013A0008F7090709E838D838D819E81892F992768
:1013B0008C832D818C819927982F8827922F981BB9
:1013C000892F8B8382E090E09093360C8093350CCC
:1013D0008C818093B50C8B818093B60C2A960FB6C6
:1013E000F894DEBF0FBECDBFDF91CF910895CF93AC
:1013F000DF93CDB7DEB7E4E3F0E080EF8083A5E3D1
:10140000B0E0E5E3F0E08081806F8C93A1E3B0E091
:10141000E1E3F0E090818FE789238C93A2E2B0E0D2
:10142000E2E2F0E080818F7E8C93A1E6B0E0E1E61D
:10143000F0E08081887F8C93DF91CF910895CF93E6
:10144000DF93CDB7DEB7E6E2F0E01082E7E2F0E04E
:101450001082E8E2F0E080E88083E6E2F0E081E0FC
:101460008083DF91CF9108950F931F93CF93DF93E4
:10147000CDB7DEB729970FB6F894DEBF0FBECDBF4C
:101480008D8380E090E0A0E0B0E089839A83AB8315
:10149000BC83E6E2F0E01082E7E2F0E08D81808339
:1014A000E6E2F0E081EC8083E6E2F0E080819927DB
:1014B000807490700097C1F7E4E2F0E00081118140
:1014C000C801AA2797FDA095BA2FBC01CD010E94A3
:1014D000D6396E837F8388879987112384F420E02F
:1014E00030E040E857E46E817F81888599850E94CD
:1014F0002F37DC01CB018E839F83A887B9878E812C
:101500009F81A885B98523E333E343E550E4BC011B
:10151000CD010E945C37DC01CB0120E030E040E8E7
:1015200054E4BC01CD010E947A38DC01CB018983EF
:101530009A83AB83BC8389819A81AB81BC81BC01D6
:10154000CD0129960FB6F894DEBF0FBECDBFDF9157
:10155000CF911F910F910895CF93DF93CDB7DEB751
:101560002C970FB6F894DEBF0FBECDBF98878F8340
:101570001A8219820E941F0A8F8198859A8789870B
:1015800089859A8581309105A9F089859A85813070
:10159000910530F089859A8582309105A9F01DC0AA
:1015A00080E00E94340ADC01CB018B839C83AD83F5
:1015B000BE8313C081E00E94340ADC01CB018B831F
:1015C0009C83AD83BE8309C082E00E94340ADC01A3
:1015D000CB018B839C83AD83BE832B813C814D816A
:1015E0005E8163E373E383E590E40E947A38DC0173
:1015F000CB01BC01CD010E94AB35DC01CB019A834C
:10160000898389819A819C878B878B859C85823091
:10161000910599F08B859C8583309105B1F08B8580
:101620009C858130910509F018C0A5E3B0E0E5E3A1
:10163000F0E080818F7E8C9318C0A5E3B0E0E5E3F5
:10164000F0E080818F7D8C9310C0A5E3B0E0E5E3EE
:10165000F0E080818F7B8C9308C0A5E3B0E0E5E3E8
:10166000F0E090818FE789238C9388E893E19A8357
:10167000898389819A8101979A83898389819A8153
:101680002FEF8F3F9207A9F7A5E3B0E0E5E3F0E085
:10169000808180688C93A5E3B0E0E5E3F0E0808191
:1016A00080648C93A5E3B0E0E5E3F0E080818062A4
:1016B0008C93A5E3B0E0E5E3F0E0808180618C935A
:1016C0005BCFCF93DF93CDB7DEB7F8941092320D96
:1016D000E9E5F0E01082AAE5B0E0EAE5F0E080811B
:1016E00083608C93A9E5B0E0E9E5F0E0808180615A
:1016F0008C937894DF91CF9108951F920F920FB63B
:101700000F9211242F938F939F93EF93FF93CF9377
:10171000DF93CDB7DEB72297DEBFCDBF88EE93E073
:101720009A83898389819A8101979A8389838981A0
:101730009A812FEF8F3F9207A9F7E1E2F0E08081D5
:10174000992780719070009719F081E08093320D95
:101750002296F894DEBFCDBFDF91CF91FF91EF913C
:101760009F918F912F910F900FBE0F901F90189502
:10177000CF93DF93CDB7DEB71092330DA7E5B0E07E
:10178000E7E5F0E0808181608C93ADE7B0E0EDE7C4
:10179000F0E0808184608C93EAE8F0E01082E9E870
:1017A000F0E083EE8083E8E8F0E081EE8083E7E814
:1017B000F0E08CE18083E6E8F0E08FEF8083E5E8FD
:1017C000F0E08FEF8083E4E8F0E08FEF8083E3E8E0
:1017D000F0E08FEF8083E2E8F0E08FEF8083E1E8D4
:1017E000F0E08CE18083E0E8F0E08FE18083EBE8DB
:1017F000F0E010820E94630DEAE8F0E085E080836B
:10180000DF91CF9108951F920F920FB60F9211247E
:10181000EF92FF920F931F932F933F934F935F93FA
:101820006F937F938F939F93AF93BF93EF93FF93A8
:10183000CF93DF93CDB7DEB76497DEBFCDBF80E037
:1018400090E0A0E0B0E089879A87AB87BC8780E012
:1018500090E0A0E0B0E08D839E83AF83B88780E006
:1018600090E0A0E0B0E089839A83AB83BC83E5E499
:10187000F0E01082EAE8F0E010828091360D90915D
:10188000370D382F2227E4E4F0E080819927820F7A
:10189000931F9093390D8093380D0091380D10915E
:1018A000390DC801AA2797FDA095BA2FBC01CD011B
:1018B0000E94D639698B7A8B8B8B9C8B112384F495
:1018C00020E030E040E857E469897A898B899C8977
:1018D0000E942F37DC01CB01898B9A8BAB8BBC8BA1
:1018E00020E030E74FE554E469897A898B899C8947
:1018F0000E945C37DC01CB0120E030E044E353E49C
:10190000BC01CD010E945C37DC01CB019C01AD0123
:1019100068E27BE68EE69EE40E947A38DC01CB0129
:1019200089879A87AB87BC8729853A854B855C85F3
:1019300069857A858B859C850E945C37DC01CB01AB
:101940008D839E83AF83B88729853A854B855C85D7
:101950006D817E818F8198850E945C37DC01CB018F
:1019600089839A83AB83BC832AE939E948E555EC3E
:1019700069817A818B819C810E945C37DC01CB017B
:101980007C018D0120E030EB47E256E46D817E81E1
:101990008F8198850E945C37DC01CB019C01AD01F1
:1019A000C801B7010E942F37DC01CB017C018D01FA
:1019B00020E034E643E256EC69857A858B859C8588
:1019C0000E945C37DC01CB019C01AD01C801B7016D
:1019D0000E942F37DC01CB0126E63EED4AE455E4B8
:1019E000BC01CD010E942F37DC01CB01BC01CD0130
:1019F0000E94AB35DC01CB019093350D8093340D03
:101A00008091340D9091350D8536910530F084E646
:101A100090E09093350D8093340D0091340D10912A
:101A2000350DC801AA2797FDA095BA2FBC01CD019D
:101A30000E94D6396D877E878F87988B112384F417
:101A400020E030E040E857E46D857E858F859889F9
:101A50000E942F37DC01CB018D879E87AF87B88B23
:101A60002AE037ED43E25CE36D857E858F859889BA
:101A70000E94A03988230CF004C01092350D1092FA
:101A8000340D1092370D1092360D81E08093330D96
:101A90006496F894DEBFCDBFDF91CF91FF91EF91B7
:101AA000BF91AF919F918F917F916F915F914F9176
:101AB0003F912F911F910F91FF90EF900F900FBECC
:101AC0000F901F901895CF93DF93CDB7DEB7A7E5A2
:101AD000B0E0E7E5F0E0808180688C93E5E4F0E039
:101AE0001082E4E4F0E01082E3E4F0E08FEF808322
:101AF000E5E4F0E087E08083DF91CF9108951F92C5
:101B00000F920FB60F9211242F933F934F935F9331
:101B10006F937F938F939F93AF93BF93EF93FF93B5
:101B2000CF93DF93CDB7DEB78091360D9091370D0F
:101B300001969093370D8093360D0E94630DDF91CF
:101B4000CF91FF91EF91BF91AF919F918F917F9135
:101B50006F915F914F913F912F910F900FBE0F901A
:101B60001F901895CF93DF93CDB7DEB763970FB66D
:101B7000F894DEBF0FBECDBF898B80E090E0A0E07F
:101B8000B0E08D879E87AF87B88B1A8219828989CA
:101B9000282F33273B8B2A8B8A899B89823091059A
:101BA00009F487C02A893B89233031055CF48A898E
:101BB0009B890097D1F02A893B892130310509F4AE
:101BC00046C011C18A899B898430910509F4C3C03C
:101BD0002A893B89243031050CF4B0C08A899B895D
:101BE0008530910509F4E3C0FEC00E941F0A82E01F
:101BF0000E94340ADC01CB018D879E87AF87B88BAA
:101C000020E030E040E05FE36D857E858F85988938
:101C10000E94A03988230CF003C01A821982E3C005
:101C200020E030E040E250E46D857E858F85988924
:101C30000E94343918160CF005C082E090E09A83B7
:101C40008983D1C081E090E09A838983CCC00E94CF
:101C50001F0A81E00E94340ADC01CB018D879E8738
:101C6000AF87B88B20E030E040EC5FE36D857E8588
:101C70008F8598890E94A03988230CF003C01A82AE
:101C80001982B1C023E333E343EF5FE36D857E85C3
:101C90008F8598890E94343918160CF005C082E0AF
:101CA00090E09A8389839FC081E090E09A83898342
:101CB0009AC01092320D1C861B8635C01A86198672
:101CC00027C0E1E2F0E08081992780719070009751
:101CD000D1F084E690E098878F838F819885019773
:101CE00098878F838F8198852FEF8F3F9207A9F771
:101CF000E1E2F0E08081992780719070009719F0FF
:101D000081E08093320D89859A8501969A8789872B
:101D100089859A8533E0883E930798F28B859C8568
:101D200001969C878B878B859C858436910530F244
:101D30008091320D99279A83898355C00E94B80BF0
:101D40008091330D8823E1F38091340D9091350D0E
:101D50009A83898348C00E941F0A80E00E94340A47
:101D6000DC01CB018D879E87AF87B88B8D859E85E3
:101D7000AF85B88923E333E343E550E4BC01CD01EB
:101D80000E947A38DC01CB0120E030E44CE156E4DB
:101D9000BC01CD010E945C37DC01CB01BC01CD014F
:101DA0000E94AB35DC01CB019A8389831CC00E9461
:101DB0006700DC01CB018B839C83AD83BE8320E075
:101DC00030E040E251E46B817C818D819E810E94F4
:101DD0005C37DC01CB01BC01CD010E94AB35DC01DD
:101DE000CB019A83898389819A8163960FB6F8948F
:101DF000DEBF0FBECDBFDF91CF910895CF93DF93AC
:101E0000CDB7DEB7EEE4F0E010821092400D1092F4
:101E1000410D1092420D1092430DECE4F0E08FED75
:101E20008083EDE4F0E081EB8083A7E5B0E0E7E5B7
:101E3000F0E0808184608C93EFE4F0E01082EEE4C7
:101E4000F0E082E08083DF91CF910895CF93DF931C
:101E5000CDB7DEB724970FB6F894DEBF0FBECDBF67
:101E6000A7E5B0E0E7E5F0E080818B7F8C9380917F
:101E7000400D9091410DA091420DB091430D898389
:101E80009A83AB83BC83A7E5B0E0E7E5F0E080810F
:101E900084608C9389819A81AB81BC81BC01CD0126
:101EA00024960FB6F894DEBF0FBECDBFDF91CF9161
:101EB0000895CF93DF93CDB7DEB7EDE4F0E081EB8B
:101EC0008083ECE4F0E08FED80838091400D909171
:101ED000410DA091420DB091430D0196A11DB11D80
:101EE0008093400D9093410DA093420DB093430D0C
:101EF000DF91CF910895CF93DF93CDB7DEB70E94E6
:101F000090111092450DDF91CF910895CF93DF93FB
:101F1000CDB7DEB70E94B9159927DF91CF9108950B
:101F2000CF93DF93CDB7DEB70E94DD15DF91CF9160
:101F30000895CF93DF93CDB7DEB70E94C311DF9131
:101F4000CF910895CF93DF93CDB7DEB724970FB627
:101F5000F894DEBF0FBECDBF8091450D282F3327EB
:101F60003C832B838B819C818130910581F02B8177
:101F70003C812630310531F18B819C81009709F03D
:101F800032C00E94962681E08093450D2CC00E94AD
:101F9000AB26882341F180914A0E8170882349F055
:101FA0000E94E507882329F00E94D71B86E08093D2
:101FB000450D8091440D8823B1F021E030E03A8353
:101FC000298313C00E94E91B882369F080910D0EBC
:101FD0008170882329F081E090E09A83898305C08D
:101FE00081E08093450D1A82198289819A81249615
:101FF0000FB6F894DEBF0FBECDBFDF91CF9108952D
:10200000CF93DF93CDB7DEB724970FB6F894DEBF3A
:102010000FBECDBF8091450D282F33273C832B83E6
:102020008B819C8181309105D9F02B813C812230BC
:1020300031052CF48B819C81009761F043C02B818A
:102040003C812430310541F18B819C8185309105A3
:1020500049F138C00E94962681E08093450D32C038
:102060000E94AB26882371F180914A0E81708823EB
:1020700051F00E94E507882329F10E94CD1C84E0DD
:102080008093450D1FC08091440D8823D9F021E035
:1020900030E03A83298318C00E946C1A85E080934F
:1020A000450D10C00E947D1A882361F080910D0EAD
:1020B0008170882329F081E090E09A83898304C0AD
:1020C0001092450D1A82198289819A8124960FB641
:1020D000F894DEBF0FBECDBFDF91CF910895CF93AF
:1020E000DF93CDB7DEB70E941A1DDF91CF9108951F
:1020F000CF93DF93CDB7DEB70E94271D9927DF91DD
:10210000CF910895CF93DF93CDB7DEB70E9412121F
:1021100081E090E0DF91CF910895CF93DF93CDB729
:10212000DEB70E941316DF91CF910895CF93DF930E
:10213000CDB7DEB721970FB6F894DEBF0FBECDBF87
:10214000898389810E947F12992721960FB6F8947E
:10215000DEBF0FBECDBFDF91CF910895CF93DF9348
:10216000CDB7DEB7E091460DF091470D82818D7FAE
:102170008283DF91CF910895CF93DF93CDB7DEB700
:1021800021970FB6F894DEBF0FBECDBF898389813A
:10219000282F3327C901880F991F820F931F865953
:1021A000924F9093470D8093460D21960FB6F89469
:1021B000DEBF0FBECDBFDF91CF910895CF93DF93E8
:1021C000CDB7DEB7E091460DF091470D828186953F
:1021D000869581709927DF91CF910895CF93DF93F2
:1021E000CDB7DEB70E948F169927DF91CF91089562
:1021F000CF93DF93CDB7DEB70E9427289927DF91D1
:10220000CF910895CF93DF93CDB7DEB723970FB665
:10221000F894DEBF0FBECDBF9A8389836B8389811B
:102220009A816B810E944128992723960FB6F894D2
:10223000DEBF0FBECDBFDF91CF910895CF93DF9367
:10224000CDB7DEB78091630D9927DF91CF910895C7
:10225000CF93DF93CDB7DEB70E943D15DF91CF91CD
:102260000895CF93DF93CDB7DEB722970FB6F894DA
:10227000DEBF0FBECDBF9A83898389819A810E9478
:10228000C612992722960FB6F894DEBF0FBECDBFB7
:10229000DF91CF910895CF93DF93CDB7DEB70E9442
:1022A000BE20DF91CF910895CF93DF93CDB7DEB7F6
:1022B00022970FB6F894DEBF0FBECDBF9A838983F5
:1022C00089819A810E94292422960FB6F894DEBF54
:1022D0000FBECDBFDF91CF910895CF93DF93CDB7E0
:1022E000DEB722970FB6F894DEBF0FBECDBF9A833C
:1022F000898389819A810E946A2422960FB6F89474
:10230000DEBF0FBECDBFDF91CF910895CF93DF9396
:10231000CDB7DEB70E9493249927DF91CF9108951E
:10232000CF93DF93CDB7DEB721970FB6F894DEBF1A
:102330000FBECDBF8FE0EAE6FDE0DF01982F1D92D2
:102340009A95E9F71092670D19820FC08981282F9D
:102350003327C901880F991F820F931FFC01E4598D
:10236000F24F108289818F5F89838981853070F374
:102370000E94322521960FB6F894DEBF0FBECDBF66
:10238000DF91CF910895CF93DF93CDB7DEB70E9451
:10239000E7118091670D8E7F8093670D8091250EE8
:1023A0008E7F8093250E80910D0E877F80930D0E7A
:1023B00080919C0D8E7F80939C0DABE3B0E0EBE3AE
:1023C000F0E080818F7D8C93DF91CF910895CF9342
:1023D000DF93CDB7DEB721970FB6F894DEBF0FBEFF
:1023E000CDBF198211C08981282F3327C901880FD9
:1023F000991F820F931FFC01E459F24F80818B7F5C
:10240000808389818F5F89838981853060F3109211
:10241000670D21960FB6F894DEBF0FBECDBFDF91DA
:10242000CF910895CF93DF93CDB7DEB724970FB642
:10243000F894DEBF0FBECDBF0E94452581E08A83A0
:1024400080919C0D8170882309F44AC08091670DAA
:102450008170882329F081E090E09C838B8344C0C5
:102460008091950D813029F081E090E09C838B83F1
:102470003BC00E94CB14882371F18091600D992795
:10248000837090708130910531F18091600D9927B2
:102490008370907082309105F1F08091600D9927E2
:1024A000837090700097B9F48091610D882399F43E
:1024B0008091620D0E946314882349F08BE192E0C1
:1024C0000E94640481E090E09C838B830DC085E3CF
:1024D00092E00E9464048A81882311F00E943D15D5
:1024E00081E090E09C838B838B819C8124960FB646
:1024F000F894DEBF0FBECDBFDF91CF910895CF938B
:10250000DF93CDB7DEB724970FB6F894DEBF0FBECA
:10251000CDBF8A838AE69DE09093470D8093460D58
:10252000198222C099818A81981791F4E091460D11
:10253000F091470D1282E091460DF091470D828196
:10254000826082838981282F33273C832B8313C0A9
:1025500089818F5F89838091460D9091470D039605
:102560009093470D8093460D89818530D8F28FEF87
:1025700090E09C838B838B819C8124960FB6F8948A
:10258000DEBF0FBECDBFDF91CF9108950F931F9394
:10259000CF93DF93CDB7DEB727970FB6F894DEBFA2
:1025A0000FBECDBF9D838C83EC81FD81868580939A
:1025B000660DEC81FD8185858093630DEC81FD8145
:1025C000838594859093650D8093640DEC81FD81E6
:1025D000828193812FEF8F3F920719F41F821E8211
:1025E00013C1EC81FD81828193810E945D2F9A83CA
:1025F000898389819A81009731F0E981FA81838505
:102600008270882311F5EC81FD81828193810E9483
:10261000742AEC81FD81828193810E948B2888231A
:1026200069F081E592E00E946404EC81FD81828181
:1026300093810E945D2F9A83898307C08AE692E086
:102640000E9464041F821E82DFC088E080930F0E08
:102650008091AF0D9091B00D90931B0E80931A0E48
:10266000E981FA81858196819093190E8093180EE5
:1026700081E892E00E9464048091180E282F33278D
:102680008091190E9927B9010E94B004EC81FD8157
:1026900080818170882319F41F821E82B5C01B823D
:1026A000EC81FD8182858093620DEC81FD818081CA
:1026B0008470882319F01F821E82A6C0EC81FD81E0
:1026C000828193812FE03EE0AC016B81C9010E94C1
:1026D0001114EC81FD818289882399F480913A0D4F
:1026E0008F5F80933A0D80913A0D882329F4809171
:1026F0003A0D8F5F80933A0D80913A0D0E94BE167D
:1027000005C0EC81FD8182890E94BE16EC81FD81AD
:1027100081818823A1F4EC81FD819389EC81FD8185
:102720008489892B0E94BE16EC81FD8185890E94D7
:10273000BE16EC81FD8186890E94BE160AC0EC811E
:10274000FD818181813029F4EC81FD8187850E94A2
:10275000BE16EC81FD812785EC81FD818089918900
:10276000622F0E9452160091460D1091470D0E9453
:10277000EB16F80180830E941212E091460DF09151
:10278000470D80810E94DA21882391F0E091460D67
:10279000F091470D80810E9496218CE892E00E9482
:1027A000640480913A0D282F33273F832E832CC059
:1027B000E091460DF091470D8081282F3327C90104
:1027C000880F991F880F991F880F991F821B930BE1
:1027D000FC01ED54F24F80818695869581708823A7
:1027E00051F2E091460DF091470D80810E949621B3
:1027F000E981FA81858196810E94102D8FE992E00E
:102800000E9464041F821E828E819F8127960FB6CC
:10281000F894DEBF0FBECDBFDF91CF911F910F9116
:102820000895CF93DF93CDB7DEB726970FB6F89410
:10283000DEBF0FBECDBF9B838A836C835E834D83D7
:102840008D819E81EA81FB819C0140E064E0CF01A3
:102850000E943A278C810E94BE168C819927837032
:1028600090708130910531F18C818C7089838981E0
:10287000882319F08981883021F48091620D0E94AB
:10288000BE168091630D0E94BE168091640D0E9459
:10289000BE168091650D0E94BE168981843031F488
:1028A000FE01349680818071882321F08091660D2D
:1028B0000E94BE1626960FB6F894DEBF0FBECDBF9F
:1028C000DF91CF910895CF93DF93CDB7DEB72397F4
:1028D0000FB6F894DEBF0FBECDBF8B8319821A826C
:1028E0004BC08A81282F3327C901880F991F820F77
:1028F000931FFC01E459F24F8081869581708823F3
:10290000C1F19A818B819817A1F58A81282F3327ED
:10291000C901880F991F820F931FFC01E459F24FE0
:102920008081869586958170813099F48CEA92E059
:102930000E9464048A81282F3327C901880F991FB8
:10294000820F931FFC01E459F24F808188608083DD
:1029500010C08A81282F3327C901880F991F820F41
:10296000931FFC01E459F24F80818460808381E0F1
:1029700089838A818F5F8A838A81853008F4B1CF09
:102980008981992723960FB6F894DEBF0FBECDBF7D
:10299000DF91CF910895CF93DF93CDB7DEB7229724
:1029A0000FB6F894DEBF0FBECDBF80912B0E8823EB
:1029B00019F41A82198256C00E9427288093600D4C
:1029C0008091600D8C708093610D8091610D8C30D1
:1029D00019F41A82198246C08091610D843029F45D
:1029E0008091600D8071882321F40E9427288093B4
:1029F000620D8091600D992783709070009741F06F
:102A00008091600D9927837090708230910521F438
:102A10000E9427288093630D0E9427288093640DCD
:102A20000E9427288093650D8091610D843029F4E0
:102A30008091600D8071882321F00E942728809367
:102A4000660D8091670D81608093670D80914D0EBA
:102A500090914E0E9093690D8093680D81E090E007
:102A60009A83898389819A8122960FB6F894DEBF72
:102A70000FBECDBFDF91CF910895CF93DF93CDB738
:102A8000DEB723970FB6F894DEBF0FBECDBFE0913F
:102A9000460DF091470D82818B7F82838091680D76
:102AA0009091690D90934E0E80934D0E80912A0E59
:102AB00080932B0E8AE69DE09B838A8319820EC049
:102AC000EA81FB81828184708823D9F489818F5FB8
:102AD00089838A819B8103969B838A838981853040
:102AE00078F38091250E8E7F8093250E0E94A12081
:102AF0008091670D8E7F8093670D89EC92E00E9434
:102B0000640423960FB6F894DEBF0FBECDBFDF91ED
:102B1000CF910895CF93DF93CDB7DEB788E3E3EB92
:102B2000FDE0DF01982F1D929A95E9F71092B10D03
:102B300010929C0D10920D0E80E090E02DEA3DE089
:102B400042E050E0BC01C9010E94D10582E090E062
:102B500025EA3DE048E050E0BC01C9010E94D105F2
:102B60008FEF8093AF0D8FEF8093B00DDF91CF91FA
:102B70000895CF93DF93CDB7DEB722970FB6F894C1
:102B8000DEBF0FBECDBF0E948F16882349F0809113
:102B9000B10D882329F481E090E09A83898302C0F3
:102BA0001A8219828981992722960FB6F894DEBF7E
:102BB0000FBECDBFDF91CF910895CF93DF93CDB7F7
:102BC000DEB722970FB6F894DEBF0FBECDBF80E010
:102BD00090EE9A838983ABE3B0E0EBE3F0E0808191
:102BE00080628C9389819A8101969A8389838981F5
:102BF0009A810097B9F70E949A328823E1F30E94E4
:102C0000BE2080914F0E0E94973480910D0E8860F7
:102C100080930D0E22960FB6F894DEBF0FBECDBF87
:102C2000DF91CF910895CF93DF93CDB7DEB7809139
:102C30000D0E8270882329F080910D0E8D7F809378
:102C40000D0EDF91CF910895CF93DF93CDB7DEB70F
:102C500021970FB6F894DEBF0FBECDBFA8E3B0E05A
:102C6000E8E3F0E080818E7F8C938FE70E941C0563
:102C70000E9439058983A8E3B0E0E8E3F0E08081B1
:102C800081608C938091980D81508093980D8981FB
:102C9000992721960FB6F894DEBF0FBECDBFDF9106
:102CA000CF910895CF93DF93CDB7DEB723970FB6BB
:102CB000F894DEBF0FBECDBF9A8389836B83A8E3F0
:102CC000B0E0E8E3F0E080818E7F8C938EE30E9499
:102CD0001C050FC0E981FA8180810E941C05898151
:102CE0009A8101969A8389838091790D8F5F809371
:102CF000790D8B8181508B838B818F3F59F7A8E3AE
:102D0000B0E0E8E3F0E0808181608C9323960FB619
:102D1000F894DEBF0FBECDBFDF91CF910895CF9362
:102D2000DF93CDB7DEB722970FB6F894DEBF0FBEA4
:102D3000CDBF80910D0E8270882399F480910D0E85
:102D40008170882371F080910D0E8870882349F07E
:102D50008091B10D883028F481E090E09A838983D6
:102D600002C01A8219828981992722960FB6F89497
:102D7000DEBF0FBECDBFDF91CF910895CF93DF931C
:102D8000CDB7DEB721970FB6F894DEBF0FBECDBF2B
:102D90008983A8E3B0E0E8E3F0E080818E7F8C9344
:102DA0008EE30E941C0589810E941C05A8E3B0E007
:102DB000E8E3F0E0808181608C938091790D8F5FF2
:102DC0008093790D21960FB6F894DEBF0FBECDBF6C
:102DD000DF91CF910895CF93DF93CDB7DEB788E031
:102DE0008093B20D80910D0E826080930D0E8091C4
:102DF0009C0D8270882331F08091EB0D0E9431216F
:102E00008093B20D80919C0D8D7F80939C0DA8E3E3
:102E1000B0E0E8E3F0E080818E7F8C9380E80E9450
:102E20001C0580E00E941C058091790D0E941C0504
:102E3000A8E3B0E0E8E3F0E0808181608C930E9439
:102E400029171092790D8091B20D9927DF91CF91BA
:102E50000895CF93DF93CDB7DEB722970FB6F894DE
:102E6000DEBF0FBECDBF0E94260FDC01CB018983E0
:102E700080910D0E826080930D0E80E00E94F834E8
:102E8000A8E3B0E0E8E3F0E080818E7F8C9380E0FF
:102E90000E941C050E9439058A838A8199278270C5
:102EA0009070009709F4F3CFA8E3B0E0E8E3F0E016
:102EB000808181608C93A8E3B0E0E8E3F0E080815A
:102EC0008E7F8C9385E00E941C050E9439058A83C1
:102ED00080E00E941C050E9439058A838A81992717
:102EE000887090700097B9F48981880F89838981EF
:102EF000882319F089818F3F29F40E94260FDC0175
:102F0000CB01898389818A838A8181508A838A81DE
:102F10008F3FD1F7D7CFA8E3B0E0E8E3F0E08081BE
:102F200081608C930E94D00722960FB6F894DEBF82
:102F30000FBECDBFDF91CF910895EF92FF920F9317
:102F40001F93CF93DF93CDB7DEB723970FB6F894D7
:102F5000DEBF0FBECDBF83EB9DE09A8389831B82CA
:102F600030C0E981FA8180818170882311F1E98183
:102F7000FA81808182708823E1F40E94260F9B01F0
:102F8000AC01E981FA8182819381A481B5817901C3
:102F90008A01E81AF90A0A0B1B0BD801C70184360B
:102FA0009105A105B10528F0E981FA81808184604D
:102FB00080838B818F5F8B8389819A8107969A8327
:102FC00089838B81883068F223960FB6F894DEBF30
:102FD0000FBECDBFDF91CF911F910F91FF90EF906A
:102FE0000895CF93DF93CDB7DEB722970FB6F8944D
:102FF000DEBF0FBECDBF0E949D1780910D0E827067
:10300000882341F40E94F233882321F082ED92E07C
:103010000E94640480919C0D8170882349F086E0B1
:1030200093E00E94640481E090E09A838983D6C093
:103030000E943135882329F481E090E09A838983C6
:10304000CDC00E94F918882349F487E193E00E94DB
:10305000640481E090E09A838983C0C089E293E0B0
:103060000E94640480919C0D816080939C0D8091EE
:10307000990D80728823B1F08091950D833059F4B9
:103080008091960D843039F48BE00E94D01D8AE047
:103090000E94D01D03C08AE00E94D01D82E493E00C
:1030A0000E9464048091950D823059F48091970DAF
:1030B0000E94F2230E94A1208EE493E00E94640407
:1030C00089C08091950D833009F069C086E593E051
:1030D0000E9464048091960D873071F482E693E03B
:1030E0000E94640480910D0E8170882311F00E946B
:1030F000361F0E94A1206EC08091960D813099F4F8
:1031000088E793E00E9464040E94FF1D882319F45D
:103110000E94A1205FC00E94A1208DEA9DE060E096
:103120000E942C1E57C08091960D8630D9F48DE8F0
:1031300093E00E94640480910D0E8170882379F0E1
:103140008091980D882319F00E94A12043C00E940D
:10315000A1208DEA9DE060E00E94821E3BC00E949B
:10316000A12038C08091960D8330A1F482EA93E0CB
:103170000E94640480910D0E8E7F80930D0E8FEF60
:103180008093AF0D8FEF8093B00D0E94BE200E9400
:10319000A12020C089EB93E00E9464041BC08091B1
:1031A000950D813029F48FEC93E00E94640412C0E5
:1031B0008091950D882371F48091370C882331F02C
:1031C0000E94A12088ED93E00E94640485EF93E0C3
:1031D0000E94640481E090E09A83898389819A81C6
:1031E00022960FB6F894DEBF0FBECDBFDF91CF9110
:1031F0000895CF93DF93CDB7DEB725970FB6F89438
:10320000DEBF0FBECDBFA8E3B0E0E8E3F0E0808111
:103210008E7F8C938FE70E941C050E9439058B835B
:103220008B81882309F430C18B818078882309F051
:103230002BC18B8182508093980D0E9439058A831F
:103240008091980D81508093980D8A818093990D7B
:103250008A8187708093950D8091950D89838981EE
:10326000843008F011C10E9439058A838091980D3D
:1032700081508093980D8A8180939A0D8A818C70F9
:1032800080937B0D9A8180EC89238093880D0E9426
:1032900039058093970D8091980D81508093980DFA
:1032A00080917B0D843009F4EFC080917B0D8823E1
:1032B000D9F00E9439058093860D0E9439058093CC
:1032C000870D80E094E00E9464048091860D282F91
:1032D00033278091870D9927B9010E94B00480910E
:1032E000980D82508093980D80917B0D8830E1F489
:1032F0000E9439058093840D0E9439058093850DC5
:103300008BE194E00E9464048091840D282F332780
:103310008091850D9927B9010E94B0048091980D84
:1033200082508093980D29C080917B0D8C3029F5B7
:103330000E94390580937C0D0E94390580937D0D94
:103340000E94390580937E0D0E94390580937F0D80
:103350000E9439058093800D0E9439058093810D6C
:103360000E9439058093820D0E9439058093830D58
:103370008091980D88508093980D8091880D8034AD
:1033800009F482C08091880D882391F08091990D75
:103390008074882369F40E9439058093930D0E94FC
:1033A00039058093940D8091980D82508093980DEB
:1033B0008091880D8038E1F40E9439058093910D49
:1033C0000E9439058093920D8AE394E00E94640480
:1033D0008091910D282F33278091920D9927B90163
:1033E0000E94B0048091980D82508093980D29C05E
:1033F0008091880D803C29F50E9439058093890DC4
:103400000E94390580938A0D0E94390580938B0DA7
:103410000E94390580938C0D0E94390580938D0D93
:103420000E94390580938E0D0E94390580938F0D7F
:103430000E9439058093900D8091980D885080935B
:10344000980D8091950D833051F48091980D8150A5
:103450008093980D0E9439058093960D09C0809144
:10346000950D813029F480910D0E806180930D0EB1
:10347000A8E3B0E0E8E3F0E0808181608C9381E034
:1034800090E09D838C831DC0A8E3B0E0E8E3F0E00A
:10349000808181608C93A8E3B0E0E8E3F0E0808174
:1034A0008E7F8C9388E00E941C0588E00E941C059A
:1034B000A8E3B0E0E8E3F0E0808181608C931D82B6
:1034C0001C828C819D8125960FB6F894DEBF0FBEBD
:1034D000CDBFDF91CF910895CF93DF93CDB7DEB706
:1034E00080910D0E8E7F80930D0E84E080930E0EE2
:1034F00010923B0DDF91CF910895CF93DF93CDB71D
:10350000DEB726970FB6F894DEBF0FBECDBF1C8284
:1035100080913B0D282F33273E832D838D819E8103
:103520008230910509F452C02D813E81253031054C
:1035300009F48AC08D819E81009709F02DC1809188
:103540000E0E815080930E0E80EC8093A40D8FEFB1
:103550009FEF9093B00D8093AF0D8CEE9DE063E2F2
:103560000E943622A8E3B0E0E8E3F0E080818E7F9D
:103570008C938EE30E941C0581E00E941C0580E074
:103580000E941C05A8E3B0E0E8E3F0E080818160E0
:103590008C938091790D8E5F8093790D0E94EB164C
:1035A0008093B20D89E594E00E9464040E94260F86
:1035B000DC01CB018093A00D9093A10DA093A20DEF
:1035C000B093A30D82E080933B0DE6C08091B20DD5
:1035D0000E94DA21882361F08091B20D0E94962129
:1035E00087E994E00E94640485E080933B0DD4C099
:1035F0000E94260FDC01CB012091A00D3091A10D7E
:103600004091A20D5091A30D821B930BA40BB50BFF
:1036100084369105A105B10508F4BEC08091B20DB4
:103620000E94962180910E0E882339F48CED94E04F
:103630000E94640481E08C83AFC08EEF94E00E940E
:10364000640410923B0DA8C080919C0D817088236A
:1036500009F47CC08091960D823009F074C080918D
:10366000990D9927837290708332910509F06BC090
:1036700080919A0D282F33278CEC90E0822393239E
:103680008C3C910509F05FC00E9424160E9424160C
:103690000E9424168B838B81882339F081E395E087
:1036A0000E94640481E08C834EC08BE695E00E940A
:1036B000640480910D0E816080930D0E81E08C83F7
:1036C0008091890D8093FB0D80918A0D8093FC0D74
:1036D00080918B0D8093FD0D80918C0D8093FE0D5C
:1036E00080918D0D8093FF0D80918E0D8093000E43
:1036F00080918F0D8093010E8091900D8093020E2A
:103700008091F70D8093AF0D8091F80D8093B00DEF
:103710000E94BE208DE995E00E9464041A821982FD
:103720000DC089819A81FC01E550F24F80810E9491
:10373000500489819A8101969A83898389819A812B
:103740008830910574F30E94A12026C00E94260FA4
:10375000DC01CB012091A00D3091A10D4091A20D73
:103760005091A30D821B930BA40BB50B84369105CE
:10377000A105B10588F080910E0E882339F48CEBF9
:1037800095E00E94640481E08C8306C089EE95E098
:103790000E94640410923B0D8C81992726960FB6E7
:1037A000F894DEBF0FBECDBFDF91CF910895CF93C8
:1037B000DF93CDB7DEB780910D0E8E7F80930D0E17
:1037C00084E080930E0E87E080933B0DDF91CF91D4
:1037D0000895CF93DF93CDB7DEB723970FB6F89454
:1037E000DEBF0FBECDBF198280913B0D282F33273E
:1037F0003B832A838A819B818730910539F02A8116
:103800003B812830310509F452C0BCC087E296E004
:103810000E94640480910E0E815080930E0E80EC05
:103820008093A40D8FEF9FEF9093B00D8093AF0D19
:1038300088E08093EC0D8FEF9FEF9093F60D8093CF
:10384000F50D8FEF9FEF9093F80D8093F70D8CEEB1
:103850009DE063E00E943622A8E3B0E0E8E3F0E0F8
:1038600080818E7F8C938EE30E941C0586E00E94EF
:103870001C05A8E3B0E0E8E3F0E0808181608C9370
:103880008091790D8F5F8093790D0E94EB160E94D5
:10389000260FDC01CB018093A00D9093A10DA09386
:1038A000A20DB093A30D88E080933B0D6BC0809177
:1038B0009C0D81708823C1F18091980D873089F526
:1038C0008091950D833069F58091960D883049F58A
:1038D0000E9424168093AF0D0E9424168093B00D91
:1038E0008091AF0D9091B00D9093F80D8093F70DEE
:1038F0000E9424168093F50D0E9424168093F60DE5
:103900000E94241680939F0D0E9424160E94241664
:103910000E94BE2080910D0E816080930D0E81E08B
:1039200089830E94A1202EC00E94260FDC01CB01BA
:103930002091A00D3091A10D4091A20D5091A30DA9
:10394000821B930BA40BB50B84369105A105B10521
:10395000C8F08EE696E00E94640480910E0E8823E3
:1039600051F481EB96E00E94640481E08093440D61
:1039700081E0898307C08AEF96E00E94640487E0B3
:1039800080933B0D8981992723960FB6F894DEBF6B
:103990000FBECDBFDF91CF910895CF93DF93CDB709
:1039A000DEB780910C0E8170882321F18CE080932A
:1039B000EC0D8091FB0D8093ED0D8091FC0D8093BB
:1039C000EE0D8091FD0D8093EF0D8091FE0D8093A3
:1039D000F00D8091FF0D8093F10D8091000E80938A
:1039E000F20D8091010E8093F30D8091020E809371
:1039F000F40D0BC08091FB0D9091FC0D9093F60D92
:103A00008093F50D88E08093EC0D8091F90D9091F5
:103A1000FA0D9093F80D8093F70D8091F70D809338
:103A2000AF0D8091F80D8093B00D0E94BE20DF9104
:103A3000CF910895CF93DF93CDB7DEB784E0809325
:103A40000E0E86E080933B0DDF91CF910895CF93CA
:103A5000DF93CDB7DEB723970FB6F894DEBF0FBE66
:103A6000CDBF198280913B0D282F33273B832A83BA
:103A70008A819B818230910509F445C02A813B816E
:103A80002630310509F081C080910E0E815080935F
:103A90000E0E80EC8093A40D8CEE9DE063E20E94FC
:103AA0003622A8E3B0E0E8E3F0E080818E7F8C93DB
:103AB0008EE30E941C0583E00E941C0582E00E94A8
:103AC0001C05A8E3B0E0E8E3F0E0808181608C931E
:103AD0008091790D8E5F8093790D0E94EB1680E4C2
:103AE00097E00E9464040E94260FDC01CB018093C2
:103AF000A00D9093A10DA093A20DB093A30D82E011
:103B000080933B0D42C08091B20D0E94DA21882340
:103B100099F08091B20D0E94962184E897E00E946E
:103B200064048FEF8093AF0D8FEF8093B00D0E94F0
:103B3000BE2081E0898329C00E94260FDC01CB01D1
:103B40002091A00D3091A10D4091A20D5091A30D97
:103B5000821B930BA40BB50B84369105A105B1050F
:103B6000A0F08091B20D0E94962180910E0E8823C4
:103B700029F481E08093440D81E0898388EB97E00C
:103B80000E94640486E080933B0D898199272396E7
:103B90000FB6F894DEBF0FBECDBFDF91CF91089571
:103BA000CF93DF93CDB7DEB722970FB6F894DEBF81
:103BB0000FBECDBF8A83A8E3B0E0E8E3F0E08081E8
:103BC0008E7F8C938A810E941C05A8E3B0E0E8E315
:103BD000F0E0808181608C9380E4898301C00000E3
:103BE00089818F5F898389818823C9F722960FB6DF
:103BF000F894DEBF0FBECDBFDF91CF910895CF9374
:103C0000DF93CDB7DEB723970FB6F894DEBF0FBEB4
:103C1000CDBF19828091980D813089F48091990DE2
:103C20009927877290708332910549F40E94241677
:103C300080939B0D81E090E09B838A8302C01B826E
:103C40001A828A819B8123960FB6F894DEBF0FBE3D
:103C5000CDBFDF91CF910895CF93DF93CDB7DEB77E
:103C600023970FB6F894DEBF0FBECDBF9A8389832A
:103C70006B838BEE97E00E94640480EC8093A40D2C
:103C80008CE08093880D8091AF0D9091B00D909352
:103C9000940D8093930D88E89DE063E20E943622A4
:103CA000A8E3B0E0E8E3F0E080818E7F8C938EE3C0
:103CB0000E941C0582E00E941C05E981FA81808136
:103CC0000E941C05E981FA8181810E941C058B817B
:103CD0000E941C05A8E3B0E0E8E3F0E08081816089
:103CE0008C938091790D8C5F8093790D0E94EB16F7
:103CF000992723960FB6F894DEBF0FBECDBFDF9194
:103D0000CF910895CF93DF93CDB7DEB724970FB649
:103D1000F894DEBF0FBECDBF9B838A836C8380EC9B
:103D20008093A40D8C81882331F48CE08093880DDE
:103D300083E289830BC088E08093880D8FEF9FEF2B
:103D40009093920D8093910D83E089838FEF9FEF85
:103D50009093940D8093930D88E89DE069810E9473
:103D60003622A8E3B0E0E8E3F0E080818E7F8C9318
:103D70008EE30E941C0588E00E941C058091AF0D17
:103D80000E941C058091B00D0E941C058091AD0D14
:103D90000E941C058091AE0D0E941C0580919F0D14
:103DA0000E941C058C81882359F4EA81FB81808163
:103DB0000E941C05EA81FB8181810E941C0506C0CE
:103DC0008FEF0E941C058FEF0E941C05A8E3B0E056
:103DD000E8E3F0E0808181608C938091790D885FC9
:103DE0008093790D0E94EB16992724960FB6F894CC
:103DF000DEBF0FBECDBFDF91CF910895CF93DF938C
:103E0000CDB7DEB71092A40D88E08093EC0D8FEF54
:103E10009FEF9093F60D8093F50D8FEF9FEF9093AA
:103E2000F80D8093F70D8CEE9DE063E00E94362242
:103E3000A8E3B0E0E8E3F0E080818E7F8C938EE32E
:103E40000E941C0587E00E941C05A8E3B0E0E8E39F
:103E5000F0E0808181608C938091790D8F5F8093F9
:103E6000790D0E94EB16DF91CF910895CF93DF93E8
:103E7000CDB7DEB780E88093A40D10920F0E8FE0CF
:103E80009EE060E00E943622A8E3B0E0E8E3F0E0C4
:103E900080818E7F8C938EE30E941C058FEF0E94A1
:103EA0001C0580EC0E941C0580E00E941C0580E03F
:103EB0000E941C0580E00E941C0580E10E941C05F8
:103EC00080E80E941C05A8E3B0E0E8E3F0E0808110
:103ED00081608C938091790D895F8093790D0E9428
:103EE000EB168AEF97E00E946404DF91CF9108956A
:103EF000CF93DF93CDB7DEB721970FB6F894DEBF2F
:103F00000FBECDBF89838981882311F00E94FE1ED8
:103F10000E94260FDC01CB018093A00D9093A10D90
:103F2000A093A20DB093A30D10929D0D21960FB6F4
:103F3000F894DEBF0FBECDBFDF91CF910895CF9330
:103F4000DF93CDB7DEB721970FB6F894DEBF0FBE73
:103F5000CDBF198280919C0D8170882389F080915A
:103F6000950D882351F484E198E00E9464040E9436
:103F7000E21F882311F081E089830E94A12017C0ED
:103F80000E94260FDC01CB012091A00D3091A10DE4
:103F90004091A20D5091A30D821B930BA40BB50B66
:103FA00084369105A105B10510F081E089838981EE
:103FB000992721960FB6F894DEBF0FBECDBFDF91D3
:103FC000CF910895CF93DF93CDB7DEB721970FB68A
:103FD000F894DEBF0FBECDBF19828091980D84305A
:103FE00008F45EC010920C0E8091880D803C31F573
:103FF00080910C0E816080930C0E8091890D8093CE
:10400000FB0D80918A0D8093FC0D80918B0D809328
:10401000FD0D80918C0D8093FE0D80918D0D809310
:10402000FF0D80918E0D8093000E80918F0D8093F7
:10403000010E8091900D8093020E08C08091910D29
:104040009091920D9093FC0D8093FB0D8091930DB8
:104050009091940D9093FA0D8093F90D80919F0D9E
:104060008093030E0E9424168093040E0E9424164F
:104070008093050E0E94260FDC01CB018093070E72
:104080009093080EA093090EB0930A0E88E08093D7
:104090000B0E80919D0D8F5F80939D0D81E0898334
:1040A0008981992721960FB6F894DEBF0FBECDBF48
:1040B000DF91CF910895CF93DF93CDB7DEB70E9404
:1040C000260FDC01CB018093A00D9093A10DA0934E
:1040D000A20DB093A30D80E00E94F834DF91CF9140
:1040E0000895CF93DF93CDB7DEB722970FB6F8943C
:1040F000DEBF0FBECDBF0E94260FDC01CB01209199
:10410000A00D3091A10D4091A20D5091A30D821BE5
:10411000930BA40BB50B1A8219828C309105A10563
:10412000B10520F081E090E09A83898389819A81AA
:1041300022960FB6F894DEBF0FBECDBFDF91CF91B0
:104140000895CF93DF93CDB7DEB78091980D8E5F42
:104150008093980D8091980D823039F08091980D60
:104160008093980D02C00E9424168091980D882398
:10417000D1F710929C0DDF91CF910895CF93DF93EB
:10418000CDB7DEB7A8E3B0E0E8E3F0E080818E7F52
:104190008C9380EE0E941C0580E80E941C05809193
:1041A000A50D0E941C058091A60D0E941C05809102
:1041B000A70D0E941C058091A80D0E941C058091EE
:1041C000A90D0E941C058091AA0D0E941C058091DA
:1041D000AB0D0E941C058091AC0D0E941C05A8E34C
:1041E000B0E0E8E3F0E0808181608C93A8E3B0E088
:1041F000E8E3F0E080818E7F8C9388EE0E941C05BE
:1042000080E80E941C058091AF0D0E941C058091E2
:10421000B00D0E941C05A8E3B0E0E8E3F0E0808167
:1042200081608C93A8E3B0E0E8E3F0E080818E7FCA
:104230008C938AEE0E941C0580E80E941C058091E8
:10424000AD0D0E941C058091AE0D0E941C05A8E3D7
:10425000B0E0E8E3F0E0808181608C93DF91CF9162
:104260000895CF93DF93CDB7DEB726970FB6F894B6
:10427000DEBF0FBECDBF8C8383EB9DE09A83898325
:104280001B823DC0E981FA8180818170882379F5A4
:10429000E981FA81808181608083E981FA8180816E
:1042A0008D7F8083E981FA818C8181830E94260F32
:1042B000DC01CB01E981FA8182839383A483B583F6
:1042C000E981FA8184E086838091B10D8F5F8093CC
:1042D000B10D8B81805D0E94500484E298E00E94C1
:1042E00064048B81282F33273E832D8314C089815A
:1042F0009A8107969A8389838B818F5F8B838B81C9
:10430000883008F4BFCF85E498E00E94640488E018
:1043100090E09E838D838D819E8126960FB6F894C2
:10432000DEBF0FBECDBFDF91CF910895CF93DF9356
:10433000CDB7DEB721970FB6F894DEBF0FBECDBF65
:1043400089838981282F3327C901880F991F880FF6
:10435000991F880F991F821B930BFC01ED54F24F9C
:10436000808181708823E9F08981282F3327C90152
:10437000880F991F880F991F880F991F821B930B15
:10438000FC01ED54F24F10828091B10D8150809369
:10439000B10D8981805D0E94500487E698E00E94FB
:1043A000640421960FB6F894DEBF0FBECDBFDF9137
:1043B000CF910895CF93DF93CDB7DEB724970FB693
:1043C000F894DEBF0FBECDBF8A838A81805D0E94D4
:1043D00050048A81883039F48CE898E00E946404A3
:1043E0001C821B8238C08A81282F3327C901880F7D
:1043F000991F880F991F880F991F821B930BFC012F
:10440000ED54F24F808181708823D9F08A81282F62
:104410003327C901880F991F880F991F880F991F8B
:10442000821B930BFC01ED54F24F808186958170C5
:1044300089838981882351F08BE998E00E94640484
:1044400005C08FEA98E00E94640419828981282FB0
:1044500033273C832B838B819C8124960FB6F89461
:10446000DEBF0FBECDBFDF91CF910895CF93DF9315
:10447000CDB7DEB726970FB6F894DEBF0FBECDBF1F
:104480009D838C836E838E819927807290700097B4
:1044900031F080919C0D826080939C0D05C08091CD
:1044A0009C0D8D7F80939C0DA8E3B0E0E8E3F0E0E5
:1044B00080818E7F8C9389E00E941C05A8E3B0E088
:1044C000E8E3F0E0808181608C9381E00E945004F9
:1044D00082E00E94500483E00E94500484E00E9425
:1044E000500485E00E945004A8E3B0E0E8E3F0E067
:1044F00080818E7F8C938EE30E941C0580E00E9459
:104500001C058E819927837090708230910541F04F
:10451000EC81FD8180818B838091A40D8A8302C010
:104520001B821A829B818A81892B89838E810E94BA
:104530001C058E810E94500489810E941C0589817E
:104540000E9450048E81992783709070823091056B
:1045500049F48091970D0E941C058091970D0E944F
:10456000500411C08091EB0D8F5F8093EB0D809113
:10457000EB0D0E941C058091EB0D0E945004809170
:10458000EB0D80939E0D85E08093790D8B818823C0
:10459000C9F0EC81FD8183850E941C05EC81FD81C1
:1045A00084850E941C05EC81FD8184850E94500455
:1045B000EC81FD8183850E9450048091790D8E5F8E
:1045C0008093790D8B81883021F5EC81FD81818587
:1045D0000E941C05EC81FD8181850E945004EC81C4
:1045E000FD8182850E941C05EC81FD8182850E94EF
:1045F0005004EC81FD8182850E945004EC81FD8194
:1046000081850E9450048091790D8E5F8093790D91
:1046100059C08B818C3009F055C0EC81FD818181BE
:104620000E941C05EC81FD8181810E945004EC8177
:10463000FD8182810E941C05EC81FD8182810E94A6
:104640005004EC81FD8183810E941C05EC81FD8179
:1046500083810E945004EC81FD8184810E941C05AD
:10466000EC81FD8184810E945004EC81FD81858173
:104670000E941C05EC81FD8185810E945004EC8123
:10468000FD8186810E941C05EC81FD8186810E944E
:104690005004EC81FD8187810E941C05EC81FD8125
:1046A00087810E945004EC81FD8180850E941C0559
:1046B000EC81FD8180850E9450048091790D885F96
:1046C0008093790DFE013696808180748823C1F431
:1046D0008A818823A9F08091AF0D0E941C058091EA
:1046E000AF0D0E9450048091B00D0E941C05809176
:1046F000B00D0E9450048091790D8E5F8093790DEA
:104700008A818038B1F48091AD0D0E941C058091A2
:10471000AD0D0E9450048091AE0D0E941C05809149
:10472000AE0D0E9450048091790D8E5F8093790DBB
:1047300049C08A81803C09F045C08091A50D0E9446
:104740001C058091A50D0E9450048091A60D0E9429
:104750001C058091A60D0E9450048091A70D0E9417
:104760001C058091A70D0E9450048091A80D0E9405
:104770001C058091A80D0E9450048091A90D0E94F3
:104780001C058091A90D0E9450048091AA0D0E94E1
:104790001C058091AA0D0E9450048091AB0D0E94CF
:1047A0001C058091AB0D0E9450048091AC0D0E94BD
:1047B0001C058091AC0D0E9450048091790D885F9A
:1047C0008093790DA8E3B0E0E8E3F0E080818160B8
:1047D0008C9326960FB6F894DEBF0FBECDBFDF9147
:1047E000CF910895CF93DF93CDB7DEB724970FB65F
:1047F000F894DEBF0FBECDBF8C8383EB9DE09A8320
:1048000089831B821AC0E981FA81808181708823A3
:1048100061F0E981FA8191818C81981731F4E98105
:10482000FA818081826080830BC08B818F5F8B8354
:1048300089819A8107969A8389838B81883018F3BE
:1048400024960FB6F894DEBF0FBECDBFDF91CF9197
:104850000895CF93DF93CDB7DEB727970FB6F894BF
:10486000DEBF0FBECDBF9A83898389819A8122E002
:1048700030E048E050E0BC01C9010E949605898102
:104880009A8125EA3DE03C832B839E838D8338E02B
:104890003F83ED81FE8100802D813E812F5F3F4F60
:1048A0003E832D83EB81FC8100822B813C812F5F35
:1048B0003F4F3C832B833F8131503F838F8188233F
:1048C00041F727960FB6F894DEBF0FBECDBFDF913C
:1048D000CF910895CF93DF93CDB7DEB722970FB670
:1048E000F894DEBF0FBECDBF9A83898389819A81F8
:1048F00020E030E042E050E0BC01C9010E94960592
:10490000E981FA8180818093AD0DE981FA8181810D
:104910008093AE0D22960FB6F894DEBF0FBECDBFCA
:10492000DF91CF910895CF93DF93CDB7DEB7229774
:104930000FB6F894DEBF0FBECDBF82E090E025EA4F
:104940003DE048E050E0BC01C9010E94D1058091E2
:10495000AC0D882341F48091AB0D843021F480911B
:10496000AA0D833A19F01A82198204C081E090E0FE
:104970009A83898389819A8122960FB6F894DEBF43
:104980000FBECDBFDF91CF910895AF92BF92CF926E
:10499000DF92EF92FF920F931F93CF93DF93CDB7E8
:1049A000DEB764970FB6F894DEBF0FBECDBF8F831E
:1049B0008F81282F3327C901880F991F820F931FDA
:1049C000880F991F845D914F9E012F5F3F4F39875C
:1049D00028879B878A8736E03C87EA85FB850080AD
:1049E0002A853B852F5F3F4F3B872A87E885F985DE
:1049F0000082288539852F5F3F4F398728873C857E
:104A000031503C878C85882341F789819A812B819D
:104A10003C814D815E818D879E872F87388B498BA6
:104A20005A8BAD84BE84CF84D888E988FA880B89F4
:104A30001C892A2D3B2D4C2D5D2D6E2D7F2D802F19
:104A4000912F64960FB6F894DEBF0FBECDBFDF91F5
:104A5000CF911F910F91FF90EF90DF90CF90BF907B
:104A6000AF900895CF93DF93CDB7DEB710924A0E83
:104A70001092250E10924E0E10924D0E0E9480281C
:104A80000E948A15DF91CF910895CF93DF93CDB720
:104A9000DEB728970FB6F894DEBF0FBECDBF0E94D9
:104AA000F11780919C0D8170882329F421E030E07A
:104AB00038872F8330C18091250E8170882349F07B
:104AC00084EC98E00E94640481E090E098878F83F2
:104AD00022C18091950D813009F019C180910D0E90
:104AE0008170882309F413C10E948527882309F463
:104AF0000EC180911D0E99278370907081309105B1
:104B000009F06EC00E9427288C838C81282F3327C0
:104B10003E832D838D819E818230910539F12D81D7
:104B20003E812330310534F48D819E8181309105A1
:104B300061F04EC02D813E812330310541F18D81E0
:104B40009E8185309105A1F143C080912B0E482FA5
:104B5000552780914D0E90914E0E2091910D3091E0
:104B6000920DBC01C9010E94D52832C080912B0E44
:104B7000482F552780914D0E90914E0E2091910D0A
:104B80003091920DBC01C9010E94632921C080911E
:104B90002B0E482F552780914D0E90914E0E20914F
:104BA000910D3091920DBC01C9010E94B72910C02E
:104BB00080912B0E482F552780914D0E90914E0ECF
:104BC0002091910D3091920DBC01C9010E94572A8C
:104BD0008091250E8E7F8093250E0E94A12097C084
:104BE00080911D0E992783709070009709F08FC0F7
:104BF00020911F0E3091200E8091AD0D9091AE0D41
:104C00002817390729F421E030E038872F8383C043
:104C100080911F0E9091200E0E945D2F9B838A83AE
:104C20008091250E8E7F8093250E0E94A1208A817F
:104C30009B81009709F46BC0EA81FB8183858270B8
:104C4000882309F464C088E080930F0E8091AF0D33
:104C50009091B00D90931B0E80931A0EEA81FB8108
:104C6000858196819093190E8093180E80911F0E66
:104C70009091200EEFE0FEE09C0140E064E0CF0167
:104C80000E943A2720912B0E80914D0E90914E0E4E
:104C9000622F0E9452160E94EB1689838981805DE3
:104CA0000E9450048AED98E00E9464040E94F1176B
:104CB00089810E94DA21882341F089810E9496210E
:104CC00088EE98E00E94640422C08981282F33274F
:104CD000C901880F991F880F991F880F991F821B80
:104CE000930BFC01ED54F24F80818695869581707F
:104CF0008823E1F283E099E00E946404EA81FB8169
:104D0000858196810E94102D89810E94962181E0E3
:104D100090E098878F838F81988528960FB6F894B6
:104D2000DEBF0FBECDBFDF91CF910895CF93DF934C
:104D3000CDB7DEB78BE00E94973410921C0E8091A5
:104D40004A0E8E7F80934A0E88E199E00E946404A7
:104D5000DF91CF910895CF93DF93CDB7DEB725973D
:104D60000FB6F894DEBF0FBECDBF80911C0E282F6A
:104D700033273D832C838C819D8181309105D9F12E
:104D80002C813D81223031052CF48C819D8100974E
:104D900061F063C02C813D8122303105D1F18C81DD
:104DA0009D818430910589F058C080914F0E0E94FA
:104DB000EE07882321F484E080931C0E4EC00E94ED
:104DC0005B2081E080931C0E48C00E946E348823D3
:104DD00079F483E399E00E94640482E08093440DB7
:104DE00081E00E94F83421E030E03B832A8337C021
:104DF00010921C0E32C00E947120882371F10E9413
:104E0000CF34898381E00E94781F82E080931C0E5A
:104E100024C00E949F1F882301F180919D0D88234B
:104E200051F088E699E00E94640480914A0E816006
:104E300080934A0E05C080914A0E8E7F80934A0E61
:104E40001092440D84E080931C0E81E00E94F8349F
:104E500081E090E09B838A8302C01B821A828A8150
:104E60009B8125960FB6F894DEBF0FBECDBFDF91B4
:104E7000CF910895CF93DF93CDB7DEB726970FB6C6
:104E8000F894DEBF0FBECDBF9A8389836B834C83BA
:104E90003E832D8380E88093A40DE981FA8181858A
:104EA00092852FEF8F3F920731F489819A8161E4D7
:104EB0000E94362205C089819A8161E60E943622CD
:104EC0008B810E94BE168C810E94BE168D810E942D
:104ED000BE168E810E94BE168091AD0D0E94BE1638
:104EE0008091AE0D0E94BE168091230E0E94BE16C8
:104EF0008091240E0E94BE1626960FB6F894DEBF4F
:104F00000FBECDBFDF91CF9108950F931F93CF9325
:104F1000DF93CDB7DEB722970FB6F894DEBF0FBE92
:104F2000CDBF8091980D863018F41A82198282C004
:104F30000E94241680931D0E0E94241680931E0E3C
:104F400080911D0E99278C7390708430910519F013
:104F50001A8219826FC080911E0E8270882319F008
:104F60001A82198267C00E94241680931F0E0E9425
:104F700024168093200E0E9424168093210E0E94F6
:104F800024168093220E0E9424168093230E0E94E2
:104F900024168093240E8091250E81608093250E27
:104FA00080914D0E90914E0E009741F08091260E0B
:104FB0009091270E0E945C3D10922B0E8091980DCF
:104FC00099270E94B93C90934E0E80934D0E80918C
:104FD0004D0E90914E0E9093270E8093260E809149
:104FE000980D80932B0E8091980D80932A0E0EC001
:104FF00000914D0E10914E0E0E942416F8018083F0
:10500000C801019690934E0E80934D0E8091980D9D
:10501000882371F70E9424160E9424168091260E80
:105020009091270E90934E0E80934D0E81E090E06C
:105030009A83898389819A8122960FB6F894DEBF7C
:105040000FBECDBFDF91CF911F910F910895CF93E8
:10505000DF93CDB7DEB780912B0E815080932B0E5E
:10506000E0914D0EF0914E0E8081282F3327CF0115
:10507000019690934E0E80934D0EC901DF91CF9112
:105080000895CF93DF93CDB7DEB724970FB6F8948A
:10509000DEBF0FBECDBF9B838A836C8319821BC08A
:1050A000A0914D0EB0914E0E8C91EA81FB818083D0
:1050B0008A819B8101969B838A83CD01019690937F
:1050C0004E0E80934D0E80912B0E815080932B0EAF
:1050D00089818F5F89838C8181508C838C818F3F04
:1050E00021F080912B0E8823D9F689819927249667
:1050F0000FB6F894DEBF0FBECDBFDF91CF910895FC
:10510000CF93DF93CDB7DEB70E943E2E0E94C8300A
:10511000DF91CF910895CF93DF93CDB7DEB72A9774
:105120000FB6F894DEBF0FBECDBF98878F830E9465
:10513000260FDC01CB018B839C83AD83BE830E9451
:1051400045250E94260FDC01CB012B813C814D813E
:105150005E81821B930BA40BB50B8A3F9105A105C1
:10516000B10508F4ECCF8F8198850E945D2F9A835A
:10517000898389819A81009759F0E981FA81838531
:105180008270882329F081E090E09A87898702C0A5
:105190001A86198689859A852A960FB6F894DEBFF5
:1051A0000FBECDBFDF91CF910895CF93DF93CDB7E1
:1051B000DEB728970FB6F894DEBF0FBECDBF9C8335
:1051C0008B837E836D8358874F83ED81FE8124819D
:1051D0003581ED81FE8182859385B9010E94203160
:1051E000009709F067C08DE999E00E946404ED81A1
:1051F000FE8144815581ED81FE8126813781ED81DB
:10520000FE8182859385B9010E94D330ED81FE81B4
:1052100083818F5FED81FE818383ED81FE81238118
:10522000ED81FE8144855585ED81FE810284F38503
:10523000E02D8B819C81BC01CF010E944D302091DB
:10524000AD0D3091AE0DED81FE81868197812817DD
:10525000390729F48D819E810E94912B2BC0ED810D
:10526000FE81868197810E945D2F9A83898389813F
:105270009A810097D9F0E981FA8183858470882327
:10528000A9F0ED81FE8120853185E981FA81828155
:105290009381B9010E944332882341F0E981FA8168
:1052A00082819381ED81FE81918780878D819E81AE
:1052B0000E94512B28960FB6F894DEBF0FBECDBFCB
:1052C000DF91CF910895CF93DF93CDB7DEB72697C7
:1052D0000FB6F894DEBF0FBECDBF9A8389837C835F
:1052E0006B835E834D8384EB99E00E946404EB81C1
:1052F000FC8181818074882321F089819A810E94B8
:10530000C32CEB81FC8184818F5FEB81FC818483E2
:10531000EB81FC812481EB81FC8147815085EB810D
:10532000FC810580F681E02D89819A81BC01CF0145
:105330000E944D302091AD0D3091AE0DEB81FC817E
:10534000818592852817390729F489EC99E00E9414
:10535000640404C08B819C810E94582C26960FB651
:10536000F894DEBF0FBECDBFDF91CF910895CF93EC
:10537000DF93CDB7DEB762970FB6F894DEBF0FBEEE
:10538000CDBF9E878D87788B6F875A8B498B1C8604
:105390001B861A86198618861F821E821D821C8211
:1053A0001B828EED99E00E9464048F859889049693
:1053B0009A8789871A8219825AC0E985FA8580817D
:1053C00091810E945D2F9C878B878B859C850097A0
:1053D00009F443C0EB85FC85838581708823E9F55A
:1053E000EB85FC85838582708823B9F1EB85FC858C
:1053F00083858D7F8387E985FA8582819381EB851B
:10540000FC859383828386E090E00E94B93C9E8372
:105410008D838D819E81009709F440C0ED81FE81CE
:105420008F819885958384838D819E8198878F83D2
:10543000E985FA8580819181ED81FE819183808368
:10544000E985FA8582819381ED81FE819383828350
:105450008B819C8101969C838B8389859A85049698
:105460009A87898789819A8101969A838983EF85B2
:10547000F8898381282F332789819A81821793079E
:105480000CF49BCF8B819C81009741F08B819C8198
:105490002F813885BC01C9010E94962D62960FB6F6
:1054A000F894DEBF0FBECDBFDF91CF910895CF93AB
:1054B000DF93CDB7DEB726970FB6F894DEBF0FBEE9
:1054C000CDBF9A8389837C836B835E834D8383EF17
:1054D00099E00E94640426960FB6F894DEBF0FBED2
:1054E000CDBFDF91CF910895CF93DF93CDB7DEB7D6
:1054F00028970FB6F894DEBF0FBECDBF98878F8375
:105500008EE090E00E94B93C9E838D838D819E81C8
:10551000009709F4BDC08F8198850E945D2F9C8300
:105520008B838B819C810097A1F0EB81FC8183852B
:105530008470882371F0EB81FC8182819381ED81FD
:10554000FE8191878087ED81FE81818188608183E2
:1055500009C0ED81FE8111861086ED81FE81818179
:10556000877F8183ED81FE818F81988597838683F4
:10557000ED81FE8185E68083ED81FE811282ED81E1
:10558000FE8181818F778183ED81FE8181818F7B97
:105590008183ED81FE81818180618183ED81FE8146
:1055A00081818F7D8183ED81FE8113828091AD0D9C
:1055B0009091AE0D0E945D2F9A83898389819A8193
:1055C000009709F465C0E981FA8180819181ED81BC
:1055D000FE8193878287E981FA818485958501968A
:1055E000E981FA8195878487E981FA8184859585A7
:1055F000ED81FE8195838483E981FA8182819381A3
:105600000196E981FA8193838283E981FA8182811B
:105610009381ED81FE8195878487ED81FE814481B0
:105620005581ED81FE81868197812091AD0D30916C
:10563000AE0DBC01C9010E94D33088E080930F0EEB
:105640008091AF0D9091B00D90931B0E80931A0E28
:105650008FEF9FEF9093190E8093180E8091180E84
:105660009091190EEFE0FEE09C0140E065E0CF0173
:105670000E943A2781E00E94BE168D819E816EE0D5
:105680000E9452160E94EB168CE09AE00E9464047D
:1056900028960FB6F894DEBF0FBECDBFDF91CF9135
:1056A0000895CF93DF93CDB7DEB722970FB6F89466
:1056B000DEBF0FBECDBF9A83898388E080930F0E33
:1056C0008091AF0D9091B00D90931B0E80931A0EA8
:1056D0008FEF9FEF9093190E8093180E8091180E04
:1056E0009091190EEFE0FEE09C0140E065E0CF01F3
:1056F0000E943A2781E00E94BE1689819A816EE05D
:105700000E9452160E94EB1680E29AE00E94640406
:1057100022960FB6F894DEBF0FBECDBFDF91CF91BA
:105720000895CF93DF93CDB7DEB727970FB6F894E0
:10573000DEBF0FBECDBF9F838E838DE090E00E94C1
:10574000B93C9D838C838C819D81009709F4A7C00F
:10575000EC81FD8186E68083EC81FD8181818F7BF8
:105760008183EC81FD8181818F778183EC81FD8153
:105770001282EC81FD811382EE81FF818681978107
:10578000EC81FD8196838583EE81FF8186819781FF
:105790000E945D2F9B838A83EA81FB812281338172
:1057A000EE81FF8180859185B9010E944332882373
:1057B00049F0EE81FF81808591850196EA81FB8128
:1057C00093838283EA81FB8182819381EC81FD81D5
:1057D00090878783EC81FD811482EE81FF81828531
:1057E0009385EC81FD8192878187EC81FD81148610
:1057F000138688E080930F0E8091AF0D9091B00DCD
:1058000090931B0E80931A0EEE81FF818285938503
:105810000E945D2FFC01858196819093190E8093E3
:10582000180E8091180E9091190EEFE0FEE09C0189
:1058300040E065E0CF010E943A2782E00E94BE1658
:105840008C819D816DE00E9452160E94EB16898327
:105850000E94F11789810E94DA21882321F0898131
:105860000E94962118C08981282F3327C901880FEB
:10587000991F880F991F880F991F821B930BFC019A
:10588000ED54F24F8081869586958170882301F3CF
:1058900089810E94962187E39AE00E9464042796FA
:1058A0000FB6F894DEBF0FBECDBFDF91CF91089544
:1058B000CF93DF93CDB7DEB723970FB6F894DEBF53
:1058C0000FBECDBF9B838A8388E080930F0E8091AB
:1058D000AF0D9091B00D90931B0E80931A0EEA813C
:1058E000FB81818592850E945D2FFC0185819681D7
:1058F0009093190E8093180E8091180E9091190EA6
:10590000EFE0FEE09C0140E065E0CF010E943A2715
:1059100082E00E94BE168A819B816DE00E94521631
:105920000E94EB1689830E94F11789810E94DA2177
:10593000882321F089810E94962118C08981282F0F
:105940003327C901880F991F880F991F880F991F46
:10595000821B930BFC01ED54F24F80818695869556
:105960008170882301F389810E94962189E49AE05D
:105970000E94640423960FB6F894DEBF0FBECDBF1D
:10598000DF91CF910895CF93DF93CDB7DEB7249702
:105990000FB6F894DEBF0FBECDBF9C838B8382E031
:1059A00090E00E94B93C9A838983E981FA8188E674
:1059B0008083E981FA81118288E080930F0E8091C3
:1059C000AF0D9091B00D90931B0E80931A0E8B81AA
:1059D0009C819093190E8093180E8091180E9091CF
:1059E000190EEFE0FEE09C0140E065E0CF010E946F
:1059F0003A2785E00E94BE1689819A8162E00E9462
:105A000052160E94EB168EE59AE00E9464042496DA
:105A10000FB6F894DEBF0FBECDBFDF91CF910895D2
:105A2000CF93DF93CDB7DEB72A970FB6F894DEBFDA
:105A30000FBECDBF9A87898780914B0E90914C0EF7
:105A400098878F831E821D821C821B821A82198274
:105A500053C0EF81F8852581368189859A8528177D
:105A6000390709F043C0EF81F88583858170882369
:105A7000E9F5EF81F885838582708823B9F1EF819C
:105A8000F88583858D7F8387EF81F8858281938177
:105A90000196EF81F8859383828386E090E00E94EF
:105AA000B93C9C838B838B819C810097B1F1EF8102
:105AB000F88580819181EB81FC8191838083EF81E6
:105AC000F88582819381EB81FC8193838283EB81D2
:105AD000FC818D819E81958384838B819C819E83B3
