:100000000C9446000C9465000C9465000C946500FB
:100010000C9465000C9465000C9465000C946500CC
:100020000C940C0A0C9465000C9465000C9465000B
:100030000C9465000C9465000C94E2090C94650026
:100040000C9465000C9465000C9416040C946C04DC
:100050000C9465000C9465000C9465000C9465008C
:100060000C9465000C9465000C9465000C9465007C
:100070000C9465000C9465000C9465000C9465006C
:100080000C9465000C9465000C94650011241FBE4F
:10009000CFEFD0E1DEBFCDBF17E0A0E0B1E0E2EAF4
:1000A000FCE500E00BBF02C007900D92A634B1073B
:1000B000D9F71BE0A6E4B7E001C01D92AD3EB10741
:1000C000E1F70E94E1070C94502E0C940000CF93AE
:1000D000DF93CDB7DEB722970FB6F894DEBF0FBE21
:1000E000CDBF9A83898389819A8101979A83898375
:1000F00089819A812FEF8F3F9207A9F722960FB639
:10010000F894DEBF0FBECDBFDF91CF910895CF939E
:10011000DF93CDB7DEB724970FB6F894DEBF0FBEDE
:10012000CDBFA7E3B0E0E7E3F0E0808187608C9388
:10013000A8E3B0E0E8E3F0E0808187608C93AAE375
:10014000B0E0EAE3F0E0808180668C93ABE3B0E05E
:10015000EBE3F0E0808180648C93A7E3B0E0E7E319
:10016000F0E0808187608C93A7E3B0E0E7E3F0E004
:10017000908187E789238C93A8E3B0E0E8E3F0E07F
:10018000808187608C93A1E3B0E0E1E3F0E08081BF
:10019000877B8C93AAE3B0E0EAE3F0E0808180669D
:1001A0008C93ABE3B0E0EBE3F0E0808180648C9370
:1001B000A2E2B0E0E2E2F0E090818FE389238C9349
:1001C000ABE3B0E0EBE3F0E080818F7B8C9388EED3
:1001D00093E00E946700ABE3B0E0EBE3F0E08081E6
:1001E00080648C9384EF91E00E946700A8E3B0E004
:1001F000E8E3F0E080818E7F8C9381E00E94FF0B2A
:10020000A8E3B0E0E8E3F0E0808181608C93A8E3AC
:10021000B0E0E8E3F0E080818E7F8C9381E10E9482
:10022000FF0B8AE10E94FF0B82EE0E94FF0BA8E306
:10023000B0E0E8E3F0E0808181608C93A8E3B0E077
:10024000E8E3F0E080818E7F8C9382E10E94FF0BD7
:1002500085E00E94FF0B80E00E94FF0BA8E3B0E066
:10026000E8E3F0E0808181608C93A8E3B0E0E8E30C
:10027000F0E080818E7F8C9389E10E94FF0B81E00A
:100280000E94FF0B84EC0E94FF0BA8E3B0E0E8E3C0
:10029000F0E0808181608C93A8E3B0E0E8E3F0E0D7
:1002A00080818E7F8C9385E10E94FF0B80EA0E9403
:1002B000FF0B8FEF0E94FF0BA8E3B0E0E8E3F0E054
:1002C000808181608C93A8E3B0E0E8E3F0E0808176
:1002D0008E7F8C938CE10E94FF0B88E00E94FF0BC5
:1002E0008FE70E94FF0BA8E3B0E0E8E3F0E0808135
:1002F00081608C93A8E3B0E0E8E3F0E080818E7F3A
:100300008C9384E6898380E00E94FF0B0E941C0C82
:100310008A838A818074882331F48981815089831A
:100320008981882381F789E00E94FF0B88E00E9481
:10033000FF0BA8E3B0E0E8E3F0E0808181608C93FC
:100340001C821B828981882321F081E090E09C83BC
:100350008B838B819C8124960FB6F894DEBF0FBEF1
:10036000CDBFDF91CF910895CF93DF93CDB7DEB7A7
:1003700021970FB6F894DEBF0FBECDBF8983A8E3E7
:10038000B0E0E8E3F0E080818E7F8C9385E10E940D
:10039000FF0B8AE00E94FF0B89810E94FF0BA8E3FC
:1003A000B0E0E8E3F0E0808181608C9321960FB6A5
:1003B000F894DEBF0FBECDBFDF91CF910895CF93EC
:1003C000DF93CDB7DEB725970FB6F894DEBF0FBE2B
:1003D000CDBFE6E3F0E08081982F80E889238A830F
:1003E000E1E2F0E08081807489838A81882381F54D
:1003F0008981882369F1A8E3B0E0E8E3F0E0808137
:100400008E7F8C938FE70E94FF0B0E941C0C8B83C6
:10041000A8E3B0E0E8E3F0E0808181608C93A8E39A
:10042000B0E0E8E3F0E080818E7F8C9388E00E946A
:10043000FF0B88E00E94FF0BA8E3B0E0E8E3F0E0E8
:10044000808181608C9381E090E09D838C8302C0E9
:100450001D821C828C819D8125960FB6F894DEBF8B
:100460000FBECDBFDF91CF910895CF93DF93CDB76E
:10047000DEB721970FB6F894DEBF0FBECDBFA8E35D
:10048000B0E0E8E3F0E080818E7F8C930E941C0C4A
:100490008983A8E3B0E0E8E3F0E0808181608C9399
:1004A0008981992721960FB6F894DEBF0FBECDBF84
:1004B000DF91CF910895CF93DF93CDB7DEB7229729
:1004C0000FB6F894DEBF0FBECDBF8091E0098A3130
:1004D00019F41A8219820DC08091E0098F5F809310
:1004E000E0098091E0090E94840281E090E09A8313
:1004F000898389819A8122960FB6F894DEBF0FBE58
:10050000CDBFDF91CF910895CF93DF93CDB7DEB705
:1005100021970FB6F894DEBF0FBECDBF89838981C6
:100520008093E009A8E3B0E0E8E3F0E080818E7F0B
:100530008C9388E10E94FF0B81E40E94FF0B89816C
:10054000282F3327C901880F991F880F991F820F01
:10055000931F825D0E94FF0BA8E3B0E0E8E3F0E0A8
:10056000808181608C9321960FB6F894DEBF0FBE18
:10057000CDBFDF91CF910895CF93DF93CDB7DEB795
:1005800021970FB6F894DEBF0FBECDBFA8E3B0E051
:10059000E8E3F0E080818E7F8C9383E50E94FF0B7F
:1005A0000E941C0C8983A8E3B0E0E8E3F0E08081BE
:1005B00081608C938981992721960FB6F894DEBFCC
:1005C0000FBECDBFDF91CF910895CF93DF93CDB70D
:1005D000DEB721970FB6F894DEBF0FBECDBF89837B
:1005E000A8E3B0E0E8E3F0E080818E7F8C9389811E
:1005F000882321F483E00E94FF0B10C089818130A1
:1006000019F08981823021F486E00E94FF0B06C038
:100610008981833019F484E00E94FF0BA8E3B0E0E5
:10062000E8E3F0E0808181608C9321960FB6F89426
:10063000DEBF0FBECDBFDF91CF910895CF93DF9383
:10064000CDB7DEB724970FB6F894DEBF0FBECDBF8F
:10065000E6E3F0E08081982F80E889238A83E1E255
:10066000F0E08081982F80E8892389838A8188231C
:1006700041F08981882329F481E090E09C838B8379
:1006800002C01C821B828B81992724960FB6F89496
:10069000DEBF0FBECDBFDF91CF910895CF93DF9323
:1006A000CDB7DEB723970FB6F894DEBF0FBECDBF30
:1006B000E1E2F0E08081982F80E8892389831B8222
:1006C0001A828981882321F481E090E09B838A83C8
:1006D0008A819B8123960FB6F894DEBF0FBECDBFF3
:1006E000DF91CF910895CF93DF93CDB7DEB72397F6
:1006F0000FB6F894DEBF0FBECDBFE1E2F0E080811F
:10070000982F80E8892389831B821A828981882314
:1007100021F081E090E09B838A838A819B812396EC
:100720000FB6F894DEBF0FBECDBFDF91CF91089515
:100730000F931F93CF93DF93CDB7DEB725970FB6F7
:10074000F894DEBF0FBECDBF6A837B838C839D830D
:1007500000E910E08A819B81AC81BD81880F991FDF
:10076000AA1FBB1F880F991FAA1FBB1F880F991FA5
:10077000AA1FBB1F880F991FAA1FBB1F9C01AD0199
:1007800080E090E8A0E7B0E0BC01CD010E941A2E05
:10079000DA01C90181509927892F990F990BF80126
:1007A000808309E210E08A819B81AC81BD81880F42
:1007B000991FAA1FBB1F880F991FAA1FBB1F880F55
:1007C000991FAA1FBB1F880F991FAA1FBB1F9C013F
:1007D000AD0180E090E8A0E7B0E0BC01CD010E944F
:1007E0001A2EDA01C9018150F8018083EAE2F0E0B3
:1007F00088E98083E5E9F0E086E0808319828981D9
:100800008093530889818093520889818093D50809
:1008100089818093D40825960FB6F894DEBF0FBE69
:10082000CDBFDF91CF911F910F9108951F920F922D
:100830000FB60F9211248F939F93EF93FF93CF9353
:10084000DF93CDB7DEB72297DEBFCDBFECE2F0E09D
:1008500080818A8380915208982F9F5F8FEF892330
:1008600089838981809352089091530889818917DF
:1008700021F189819927FC01EE5AF84F8A81808302
:1008800081E08093460780914C0790914D07019637
:1008900090934D0780934C0780914C0790914D07A2
:1008A0008A30910554F010924D0710924C0781E068
:1008B00090E090934F0780934E072296F894DEBF06
:1008C000CDBFDF91CF91FF91EF919F918F910F90CD
:1008D0000FBE0F901F9018951F920F920FB60F9298
:1008E00011248F939F93AF93BF93EF93FF93CF9375
:1008F000DF93CDB7DEB72197DEBFCDBFF8949091DF
:10090000D4088091D508981791F08091D5088F5F11
:100910008F77898389818093D508ACE2B0E08981A3
:100920009927FC01EC5AF74F80818C9307C0AAE20B
:10093000B0E0EAE2F0E080818F7D8C93789421969C
:10094000F894DEBFCDBFDF91CF91FF91EF91BF91C2
:10095000AF919F918F910F900FBE0F901F901895A0
:10096000CF93DF93CDB7DEB721970FB6F894DEBFF4
:100970000FBECDBF90915208809153089817D1F3C4
:1009800080915308982F9F5F8FEF892389838981F6
:100990008093530889819927FC01EE5AF84F808192
:1009A000992721960FB6F894DEBF0FBECDBFDF9119
:1009B000CF910895CF93DF93CDB7DEB722970FB6CF
:1009C000F894DEBF0FBECDBF8A838091D4088F5FBD
:1009D0008F7789839091D50889818917D9F3898187
:1009E0009927FC01EC5AF74F8A8180838981809393
:1009F000D408AAE2B0E0EAE2F0E0808180628C9361
:100A000022960FB6F894DEBF0FBECDBFDF91CF9117
:100A10000895CF93DF93CDB7DEB722970FB6F89442
:100A2000DEBF0FBECDBF90915208809153081A824D
:100A30001982981721F081E090E09A838983898157
:100A40009A8122960FB6F894DEBF0FBECDBFDF911C
:100A5000CF910895CF93DF93CDB7DEB760E072EC0E
:100A600081E090E00E949803DF91CF910895CF93A9
:100A7000DF93CDB7DEB721970FB6F894DEBF0FBE78
:100A8000CDBF898321960FB6F894DEBF0FBECDBFD0
:100A9000DF91CF910895CF93DF93CDB7DEB7229743
:100AA0000FB6F894DEBF0FBECDBF9A83898322961E
:100AB0000FB6F894DEBF0FBECDBFDF91CF91089582
:100AC000CF93DF93CDB7DEB721970FB6F894DEBF93
:100AD0000FBECDBF898389810E94DA0421960FB6AB
:100AE000F894DEBF0FBECDBFDF91CF910895CF93B5
:100AF000DF93CDB7DEB724970FB6F894DEBF0FBEF5
:100B0000CDBF9B838A8303C089810E946005EA81EF
:100B1000FB818081898389818C838C81882311F07A
:100B200081E08C838C812A813B812F5F3F4F3B8307
:100B30002A83882349F724960FB6F894DEBF0FBEA8
:100B4000CDBFDF91CF910895CF93DF93CDB7DEB7BF
:100B500024970FB6F894DEBF0FBECDBF9A8389836A
:100B60007C836B8324960FB6F894DEBF0FBECDBF97
:100B7000DF91CF910895CF93DF93CDB7DEB7249760
:100B80000FB6F894DEBF0FBECDBF9C838B838B81E5
:100B90009C810E94112E01960E94112D9A838983B7
:100BA00089819A81009729F480E091E00E944B05A9
:100BB00010C08B819C8129813A81BC01C9010E94AE
:100BC0000A2E89819A810E944B0589819A810E940F
:100BD000B42D24960FB6F894DEBF0FBECDBFDF91C3
:100BE000CF910895CF93DF93CDB7DEB70E94B004C5
:100BF0009927DF91CF910895CF93DF93CDB7DEB7DB
:100C000025970FB6F894DEBF0FBECDBF9C838B83B4
:100C10006D8319828D8181508D838D818F3FE9F0A5
:100C20000E9409058823E1F30E94B0048A838A8127
:100C30008D3099F08A818A3081F089818F5F898334
:100C4000EB81FC818A8180838B819C8101969C83CE
:100C50008B83EB81FC811082DDCF898199272596DA
:100C60000FB6F894DEBF0FBECDBFDF91CF910895D0
:100C70000F931F93CF93DF93CDB7DEB726970FB6B1
:100C8000F894DEBF0FBECDBF9C838B837E836D83C4
:100C90001A8219821A82198211C089819A819C0153
:100CA0008B819C818901080F191F0E94B004F801F3
:100CB000808389819A8101969A83898329813A81E7
:100CC0008D819E812817390744F389819A81269660
:100CD0000FB6F894DEBF0FBECDBFDF91CF911F914D
:100CE0000F910895CF93DF93CDB7DEB726970FB658
:100CF000F894DEBF0FBECDBF9C838B837E836D8354
:100D00001A8219821A82198210C089819A819C01E3
:100D10008B819C81F901E80FF91F80810E94DA0420
:100D200089819A8101969A83898329813A818D816B
:100D30009E81281739074CF389819A8126960FB630
:100D4000F894DEBF0FBECDBFDF91CF910895CF9352
:100D5000DF93CDB7DEB71092530810925208DF919F
:100D6000CF910895CF93DF93CDB7DEB71092D5081A
:100D70001092D408DF91CF9108950F931F93CF93D2
:100D8000DF93CDB7DEB722970FB6F894DEBF0FBE64
:100D9000CDBF80914607882319F41A82198285C035
:100DA0001092480700C00E940905882309F458C022
:100DB0000E94B0048093E1098091E1098A3A99F791
:100DC0000E94B0048093E2098091E2098F3F09F00C
:100DD000EACF82E090E090935107809350071BC0C8
:100DE0000E9409058823E1F30E9409058823C1F1C7
:100DF00000915007109151070E94B004F801EF5183
:100E0000F64F8083809150079091510701969093FF
:100E100051078093500780915007909151078B3074
:100E20009105F4F28091E1098A3AD1F48091E209C6
:100E30008F3FB1F48091EB098F3F91F481E0809373
:100E400047078091E409809349070E94A706109202
:100E5000460780914A0790914B079A83898325C062
:100E6000109247070E94A70610924607109251075A
:100E70001092500711C08091500790915107FC01CA
:100E8000EF51F64F108280915007909151070196D3
:100E9000909351078093500780915007909151078C
:100EA0008B30910544F31A82198289819A812296A6
:100EB0000FB6F894DEBF0FBECDBFDF91CF911F916B
:100EC0000F910895CF93DF93CDB7DEB781EE99E010
:100ED0006BE070E00E947206DF91CF910895CF938E
:100EE000DF93CDB7DEB780914E0790914F079927DA
:100EF000DF91CF910895CF93DF93CDB7DEB71092F6
:100F00004F0710924E07DF91CF910895CF93DF9353
:100F1000CDB7DEB7809147079927DF91CF9108952C
:100F2000CF93DF93CDB7DEB7809149079927DF9143
:100F3000CF910895CF93DF93CDB7DEB710924707D7
:100F4000DF91CF910895CF93DF93CDB7DEB722978E
:100F50000FB6F894DEBF0FBECDBF9A838983898117
:100F60009A81FC01EF51F64F8081992722960FB6A6
:100F7000F894DEBF0FBECDBFDF91CF910895CF9320
:100F8000DF93CDB7DEB722970FB6F894DEBF0FBE62
:100F9000CDBF9A8389830000000000000000898192
:100FA0009A8101979A83898389819A81009799F719
:100FB00022960FB6F894DEBF0FBECDBFDF91CF9162
:100FC00008950F931F93CF93DF93CDB7DEB76F973D
:100FD0000FB6F894DEBF0FBECDBF188619861A86ED
:100FE0001B821A820E94A10988E10FB6F89481BD84
:100FF00011BC0FBE0E94EC0E8823C1F4198E84E050
:10100000888F83EA8F8B1E8A1D8A1C8A1B8A8AE03E
:101010008A8B8AE08A8F1B8ECE0142960E94BA0E7E
:10102000CE014A960E94D30E0E94B10E0E94960DE8
:101030000E94AB0D0E94B40D198200C00E94E80D01
:101040008981282F33273F8F2E8F8E8D9F8D813062
:101050009105E1F02E8D3F8D223031052CF48E8DDF
:101060009F8D009761F0EACF2E8D3F8D22303105A4
:1010700021F18E8D9F8D8330910541F1DFCF8AE97B
:1010800091E00E944B0581E08983D8CF0E94BD0D7D
:101090008823A1F28091DF0A882349F486EB91E04E
:1010A0000E944B050E94C70D82E08983C7CF8AED5D
:1010B00091E00E944B051982C1CF0E94D00D81E0C2
:1010C00092E00E944B0583E08983B8CF1092DE093D
:1010D0001092DD091AC00091DD091091DE0980919E
:1010E000DD099091DE090E94FC0D282FCE010B96A0
:1010F000FC01E00FF11F20838091DD099091DE0952
:1011000001969093DE098093DD098091DD0990912D
:10111000DE0985309105FCF28D858E838E810E94DB
:10112000220E0E94E80D0E94440E882309F446C056
:1011300085E292E00E944B050E945E0E0E945E0EC8
:101140008F838F818093D5091092DE091092DD097B
:1011500016C08091DD099091DE098C01085F1F4F58
:101160000E945E0EF801E65EFE4F80838091DD09ED
:101170009091DE0901969093DE098093DD098F81BD
:10118000282F33278091DD099091DE09821793077C
:1011900004F38091B90B9091BA0B9093D20980938C
:1011A000D1098091BB0B9091BC0B9093D409809393
:1011B000D3090E948E0E81E08093D6080E946F07AB
:1011C000882361F10E94BD060E948607882311F1E1
:1011D0000E949A070E949007282F33273D8F2C8F5B
:1011E0008C8D9D8D8130910579F02C8D3D8D203138
:1011F000310569F08C8D9D8D009709F00DC0CE01F1
:101200000B960E94D60A08C00E94380B05C00E94A7
:10121000960B02C00E9462070E947B078091D6084D
:10122000882341F0ABE3B0E0EBE3F0E080818D7F19
:101230008C9307C0ABE3B0E0EBE3F0E08081826029
:101240008C93ABE3B0E0EBE3F0E080818B7F8C9399
:1012500084EF91E00E94BF07ABE3B0E0EBE3F0E086
:10126000808184608C935ACFCF93DF93CDB7DEB764
:10127000DF91CF910895CF93DF93CDB7DEB7DF91A4
:10128000CF910895CF93DF93CDB7DEB7DF91CF91A4
:101290000895CF93DF93CDB7DEB721970FB6F894BB
:1012A000DEBF0FBECDBF898381E090E021960FB6EF
:1012B000F894DEBF0FBECDBFDF91CF910895CF93DD
:1012C000DF93CDB7DEB722970FB6F894DEBF0FBE1F
:1012D000CDBF9A83898381E090E022960FB6F8947F
:1012E000DEBF0FBECDBFDF91CF910895CF93DF93C7
:1012F000CDB7DEB723970FB6F894DEBF0FBECDBFD4
:101300009A8389836B8323960FB6F894DEBF0FBE52
:10131000CDBFDF91CF910895CF93DF93CDB7DEB7E7
:1013200022970FB6F894DEBF0FBECDBF9A83898394
:1013300022960FB6F894DEBF0FBECDBFDF91CF91DE
:101340000895CF93DF93CDB7DEB7A0E4B0E0E0E43B
:10135000F0E0808184608C93EAE3F0E087E68083AC
:10136000EBE3F0E087E48083E7E3F0E087E8808365
:10137000E8E3F0E083E08083A1E3B0E0E1E3F0E0C4
:1013800080818F7E8C930E942A050E94F00B0E9420
:10139000190DAAE5B0E0EAE5F0E0808180688C9361
:1013A000AAE5B0E0EAE5F0E080818F7B8C93A9E5C7
:1013B000B0E0E9E5F0E0808180688C937894DF917B
:1013C000CF9108951F920F920FB60F9211242F9371
:1013D0003F934F935F936F937F938F939F93AF93BD
:1013E000BF93EF93FF93CF93DF93CDB7DEB70E9408
:1013F000740DDF91CF91FF91EF91BF91AF919F91CC
:101400008F917F916F915F914F913F912F910F90AD
:101410000FBE0F901F9018951F920F920FB60F924C
:1014200011242F933F934F935F936F937F938F93E9
:101430009F93AF93BF93EF93FF93CF93DF93CDB77A
:10144000DEB70E94F30DDF91CF91FF91EF91BF9135
:10145000AF919F918F917F916F915F914F913F914C
:101460002F910F900FBE0F901F901895CF93DF9381
:10147000CDB7DEB72C970FB6F894DEBF0FBECDBF49
:10148000188684E08F8383EA8E831D821C821B82F0
:101490008091E5098C878091E6098B878C858A830A
:1014A0008B8589838B8589878C858A87CE01019678
:1014B0000E94BA0ECE0109960E94D30E0E94B10E70
:1014C0002C960FB6F894DEBF0FBECDBFDF91CF9143
:1014D0000895CF93DF93CDB7DEB724970FB6F89476
:1014E000DEBF0FBECDBF85E392E09A8389838091F2
:1014F000E7098C838091E8098B838091E909E98170
:10150000FA81808389819A81FC0131968091EA0970
:10151000808381E08093E30A81E08093E40A109263
:10152000EF0A1092EE0A1092F00A8091E609809379
:10153000F10A8B819C819093E60A8093E50A809161
:10154000E5098093ED0A89819A81DC01FD01019012
:101550000020E9F73197CF018A1B9B0B8093F20A99
:1015600089819A819093F40A8093F30A1092F50A84
:1015700024960FB6F894DEBF0FBECDBFDF91CF919A
:101580000895CF93DF93CDB7DEB722970FB6F894C7
:10159000DEBF0FBECDBF9A83898322960FB6F89423
:1015A000DEBF0FBECDBFDF91CF910895CF93DF9304
:1015B000CDB7DEB723970FB6F894DEBF0FBECDBF11
:1015C0009B838A8319828091E60999279C018A81ED
:1015D0009B81F901E80FF91F80810E94220E0E9471
:1015E000690A83EE9AE00E94970E89838981882395
:1015F000E9F487E080931C0110921D0110921E01F6
:1016000010921F01109220011092210110922201CC
:101610008FEF809323018AE191E06AE070E00E94FD
:10162000720688E392E00E944B0519C087E0809320
:101630001C0110921D0181E080931E0110921F0178
:101640001092200110922101109222018FEF8093BD
:1016500023018AE191E06AE070E00E94720623961D
:101660000FB6F894DEBF0FBECDBFDF91CF910895C6
:10167000CF93DF93CDB7DEB721970FB6F894DEBFD7
:101680000FBECDBF8091D5098A5F89838091D6082E
:10169000882351F1898180931C0181E080931D0191
:1016A0008091D70980931E018091D60980931F01F4
:1016B0008091D409809320018091D30980932101E6
:1016C000898199270296FC01E65EFE4F8FEF8083A9
:1016D0008981992703962AE131E0BC01C9010E9462
:1016E00072061092D60819C087E080931C0181E031
:1016F00080931D0110921E0110921F011092200173
:1017000010922101109222018FEF809323018AE130
:1017100091E06AE070E00E94720621960FB6F8949C
:10172000DEBF0FBECDBFDF91CF910895CF93DF9382
:10173000CDB7DEB722970FB6F894DEBF0FBECDBF90
:101740000E94360A80E090E042E050E0BC01CE0109
:1017500001960E94B40C87E080931C0180E1809385
:101760001D018A8180931E01898180931F0110923F
:10177000200110922101109222018FEF809323010A
:101780008AE191E06AE070E00E94720622960FB64C
:10179000F894DEBF0FBECDBFDF91CF910895CF93F8
:1017A000DF93CDB7DEB722970FB6F894DEBF0FBE3A
:1017B000CDBF9A8389838091E60999279C0189810D
:1017C0009A81F901E80FF91F80810E94220E22966A
:1017D0000FB6F894DEBF0FBECDBFDF91CF91089555
:1017E000CF93DF93CDB7DEB7EDE2F0E080E5808305
:1017F000EEE2F0E081E08083DF91CF910895CF9316
:10180000DF93CDB7DEB721970FB6F894DEBF0FBEDA
:10181000CDBF8983EFE2F0E089818083EEE2F0E0E2
:1018200080818823DCF721960FB6F894DEBF0FBEC7
:10183000CDBFDF91CF910895CF93DF93CDB7DEB7C2
:1018400080E00E94FF0BEFE2F0E080819927DF91BA
:10185000CF910895CF93DF93CDB7DEB723970FB61F
:10186000F894DEBF0FBECDBF9A8389836B830AC015
:101870000E941C0CE981FA81808389819A810196FA
:101880009A8389838B8181508B838B818F3F81F7F2
:1018900023960FB6F894DEBF0FBECDBFDF91CF9178
:1018A0000895CF93DF93CDB7DEB723970FB6F894A3
:1018B000DEBF0FBECDBF9A8389836B830BC0E981E6
:1018C000FA81208189819A8101969A838983822F66
:1018D0000E94FF0B8B8181508B838B818F3F79F727
:1018E00023960FB6F894DEBF0FBECDBFDF91CF9128
:1018F0000895CF93DF93CDB7DEB72E970FB6F89448
:10190000DEBF0FBECDBF9A8789877C876B875E87D6
:101910004D878B859C859A83898389859A859C834D
:101920008B838D859E859E838D838D819E819887F7
:101930008F83AB81BC81E981FA818F819885019782
:1019400024F001900E94442EFACFBC83AB83FA832B
:10195000E98398878F832E960FB6F894DEBF0FBE6B
:10196000CDBFDF91CF910895CF93DF93CDB7DEB791
:101970002E970FB6F894DEBF0FBECDBF9A8789872A
:101980007C876B875E874D8789859A859A83898353
:101990008B859C859C838B838D859E859E838D8383
:1019A0008D819E8198878F83AB81BC81E981FA818B
:1019B0008F819885019724F00E943C2E0192FACFE6
:1019C000BC83AB83FA83E98398878F832E960FB607
:1019D000F894DEBF0FBECDBFDF91CF910895CF93B6
:1019E000DF93CDB7DEB725970FB6F894DEBF0FBEF5
:1019F000CDBF9C838B836D831A8219820DC0CE016B
:101A000002962B813C8141E050E0BC01C9010E945B
:101A1000790C89818F5F898399818D81981778F3FB
:101A200025960FB6F894DEBF0FBECDBFDF91CF91E4
:101A30000895CF93DF93CDB7DEB7EEE4F0E01082E8
:101A40001092DB0A1092DC0A1092DD0A1092DE0A74
:101A5000ECE4F0E08FED8083EDE4F0E081EB808357
:101A6000A7E5B0E0E7E5F0E0808184608C93EFE4E7
:101A7000F0E01082EEE4F0E082E08083DF91CF912D
:101A80000895CF93DF93CDB7DEB724970FB6F894C0
:101A9000DEBF0FBECDBFA7E5B0E0E7E5F0E0808197
:101AA0008B7F8C938091DB0A9091DC0AA091DD0AF8
:101AB000B091DE0A89839A83AB83BC83A7E5B0E04B
:101AC000E7E5F0E0808184608C9389819A81AB8125
:101AD000BC81BC01CD0124960FB6F894DEBF0FBEC9
:101AE000CDBFDF91CF910895CF93DF93CDB7DEB710
:101AF000EDE4F0E081EB8083ECE4F0E08FED8083B7
:101B00008091DB0A9091DC0AA091DD0AB091DE0A97
:101B10000196A11DB11D8093DB0A9093DC0AA0936E
:101B2000DD0AB093DE0ADF91CF910895CF93DF9362
:101B3000CDB7DEB70E94F60E1092E00ADF91CF918A
:101B40000895CF93DF93CDB7DEB70E943D13992759
:101B5000DF91CF910895CF93DF93CDB7DEB70E9489
:101B60006113DF91CF910895CF93DF93CDB7DEB7A7
:101B70000E94D920DF91CF910895CF93DF93CDB705
:101B8000DEB70E94C3229927DF91CF910895CF93AA
:101B9000DF93CDB7DEB70E94F122DF91CF91089598
:101BA000CF93DF93CDB7DEB78091A80B846080938D
:101BB000A80BDF91CF910895CF93DF93CDB7DEB718
:101BC0008091A80B8B7F8093A80BDF91CF91089514
:101BD000CF93DF93CDB7DEB70E94780F81E090E01E
:101BE000DF91CF910895CF93DF93CDB7DEB70E94F9
:101BF0009713DF91CF910895CF93DF93CDB7DEB7E1
:101C000021970FB6F894DEBF0FBECDBF89838981BF
:101C10000E94E50F992721960FB6F894DEBF0FBEFC
:101C2000CDBFDF91CF910895CF93DF93CDB7DEB7CE
:101C3000E091E10AF091E20A82818D7F8283DF9157
:101C4000CF910895CF93DF93CDB7DEB721970FB62D
:101C5000F894DEBF0FBECDBF89838981282F33273B
:101C6000C901880F991F820F931F8B5F944F909328
:101C7000E20A8093E10A21960FB6F894DEBF0FBE08
:101C8000CDBFDF91CF910895CF93DF93CDB7DEB76E
:101C9000E091E10AF091E20A828186958695817051
:101CA0009927DF91CF910895CF93DF93CDB7DEB71A
:101CB0000E9413149927DF91CF910895CF93DF935A
:101CC000CDB7DEB70E946A229927DF91CF910895A0
:101CD000CF93DF93CDB7DEB723970FB6F894DEBF6F
:101CE0000FBECDBF9A8389836B8389819A816B8173
:101CF0000E948422992723960FB6F894DEBF0FBE68
:101D0000CDBFDF91CF910895CF93DF93CDB7DEB7ED
:101D10008091FE0A9927DF91CF910895CF93DF93A9
:101D2000CDB7DEB70E94C112DF91CF910895CF9356
:101D3000DF93CDB7DEB722970FB6F894DEBF0FBEA4
:101D4000CDBF9A83898389819A810E942C1099271B
:101D500022960FB6F894DEBF0FBECDBFDF91CF91B4
:101D60000895CF93DF93CDB7DEB70E94FD1ADF91C0
:101D7000CF910895CF93DF93CDB7DEB722970FB6FB
:101D8000F894DEBF0FBECDBF9A83898389819A8183
:101D90000E946C1E22960FB6F894DEBF0FBECDBF18
:101DA000DF91CF910895CF93DF93CDB7DEB7229720
:101DB0000FB6F894DEBF0FBECDBF9A8389838981A9
:101DC0009A810E94AD1E22960FB6F894DEBF0FBE18
:101DD000CDBFDF91CF910895CF93DF93CDB7DEB71D
:101DE0000E94D61E9927DF91CF910895CF93DF935C
:101DF000CDB7DEB721970FB6F894DEBF0FBECDBFCB
:101E00008FE0E5E0FBE0DF01982F1D929A95E9F75E
:101E10001092020B19820FC08981282F3327C90124
:101E2000880F991F820F931FFC01E95FF44F108206
:101E300089818F5F89838981853070F30E94751F46
:101E400021960FB6F894DEBF0FBECDBFDF91CF91C4
:101E50000895CF93DF93CDB7DEB70E944D0F8091E9
:101E6000020B8E7F8093020B8091BF0B8E7F80933D
:101E7000BF0B8091A80B877F8093A80B8091370BB5
:101E80008E7F8093370BABE3B0E0EBE3F0E0808133
:101E90008F7D8C93DF91CF910895CF93DF93CDB752
:101EA000DEB721970FB6F894DEBF0FBECDBF198203
:101EB00011C08981282F3327C901880F991F820FEC
:101EC000931FFC01E95FF44F80818B7F80838981C0
:101ED0008F5F89838981853060F31092020B219690
:101EE0000FB6F894DEBF0FBECDBFDF91CF9108953E
:101EF000CF93DF93CDB7DEB724970FB6F894DEBF4C
:101F00000FBECDBF0E94881F81E08A838091370B6E
:101F10008170882309F44AC08091020B8170882364
:101F200029F081E090E09C838B8344C08091300B4A
:101F3000813029F081E090E09C838B833BC00E943C
:101F40001D12882371F18091FB0A9927837090708C
:101F50008130910531F18091FB0A9927837090704F
:101F600082309105F1F08091FB0A9927837090707F
:101F70000097B9F48091FC0A882399F48091FD0AB6
:101F80000E94B511882349F08FE492E00E944B052E
:101F900081E090E09C838B830DC089E692E00E94F3
:101FA0004B058A81882311F00E94C11281E090E0E4
:101FB0009C838B838B819C8124960FB6F894DEBF23
:101FC0000FBECDBFDF91CF910895CF93DF93CDB7F3
:101FD000DEB724970FB6F894DEBF0FBECDBF8A835D
:101FE00085E09BE09093E20A8093E10A198222C087
:101FF00099818A81981791F4E091E10AF091E20ABF
:102000001282E091E10AF091E20A82818260828389
:102010008981282F33273C832B8313C089818F5FCD
:1020200089838091E10A9091E20A03969093E20AF3
:102030008093E10A89818530D8F28FEF90E09C830C
:102040008B838B819C8124960FB6F894DEBF0FBEE4
:10205000CDBFDF91CF9108950F931F93CF93DF935F
:10206000CDB7DEB727970FB6F894DEBF0FBECDBF52
:102070009D838C83EC81FD8186858093010BEC81AF
:10208000FD8185858093FE0AEC81FD8183859485A1
:102090009093000B8093FF0AEC81FD8182819381F4
:1020A0002FEF8F3F920719F41F821E8205C1EC812A
:1020B000FD81828193810E94F4299A838983898199
:1020C0009A81009731F0E981FA81838582708823B3
:1020D00011F5EC81FD81828193810E940B25EC81B9
:1020E000FD81828193810E942223882369F085E803
:1020F00092E00E944B05EC81FD81828193810E94D8
:10210000F4299A83898307C08EE992E00E944B05E7
:102110001F821E82D1C088E08093A90B80914A0B58
:1021200090914B0B9093B50B8093B40BE981FA819E
:10213000858196819093B30B8093B20BEC81FD81E6
:1021400080818170882319F41F821E82B5C01B8292
:10215000EC81FD8182858093FD0AEC81FD81808187
:102160008470882319F01F821E82A6C0EC81FD8135
:102170008281938129EA3BE0AC016B81C9010E9415
:102180006911EC81FD818289882399F48091DF09AE
:102190008F5F8093DF098091DF09882329F4809184
:1021A000DF098F5F8093DF098091DF090E9442146D
:1021B00005C0EC81FD8182890E944214EC81FD8181
:1021C00081818823A1F4EC81FD819389EC81FD81DB
:1021D0008489892B0E944214EC81FD8185890E94AB
:1021E0004214EC81FD8186890E9442140AC0EC8170
:1021F000FD818181813029F4EC81FD8187850E94F8
:102200004214EC81FD812785EC81FD8180899189D3
:10221000622F0E94D6130091E10A1091E20A0E94F7
:102220006F14F80180830E94780FE091E10AF09129
:10223000E20A80810E941D1C882391F0E091E10A4E
:10224000F091E20A80810E94D91B85EB92E00E9406
:102250004B058091DF09282F33273F832E832CC025
:10226000E091E10AF091E20A8081282F3327C90129
:10227000880F991F880F991F880F991F821B930B36
:10228000FC01E25BF44F80818695869581708823FE
:1022900051F2E091E10AF091E20A80810E94D91B9B
:1022A000E981FA81858196810E94A72788EC92E0D6
:1022B0000E944B051F821E828E819F8127960FB63A
:1022C000F894DEBF0FBECDBFDF91CF911F910F916C
:1022D0000895CF93DF93CDB7DEB726970FB6F89466
:1022E000DEBF0FBECDBF9B838A836C835E834D832D
:1022F0008D819E81EA81FB819C0140E064E0CF01F9
:102300000E947D218C810E9442148C8199278370C8
:1023100090708130910501F18C818C70898380915E
:10232000FD0A0E9442148091FE0A0E94421480918C
:10233000FF0A0E9442148091000B0E94421489817E
:10234000843031F4FE01349680818071882321F03D
:102350008091010B0E94421426960FB6F894DEBFBE
:102360000FBECDBFDF91CF910895CF93DF93CDB74F
:10237000DEB723970FB6F894DEBF0FBECDBF8B83B9
:1023800019821A824BC08A81282F3327C901880FEE
:10239000991F820F931FFC01E95FF44F808186959E
:1023A00081708823C1F19A818B819817A1F58A8168
:1023B000282F3327C901880F991F820F931FFC0113
:1023C000E95FF44F8081869586958170813099F41C
:1023D00085ED92E00E944B058A81282F3327C901A1
:1023E000880F991F820F931FFC01E95FF44F8081D2
:1023F0008860808310C08A81282F3327C901880F05
:10240000991F820F931FFC01E95FF44F8081846064
:10241000808381E089838A818F5F8A838A81853086
:1024200008F4B1CF8981992723960FB6F894DEBFBF
:102430000FBECDBFDF91CF910895CF93DF93CDB77E
:10244000DEB722970FB6F894DEBF0FBECDBF8091E6
:10245000C50B882319F41A82198288C00E946A2247
:102460008093FB0A8091FB0A8C708093FC0A809118
:10247000FC0A8C3019F41A82198278C08091FC0A07
:10248000843029F48091FB0A8071882381F40E94B2
:102490006A228093FD0A82EF92E00E944B058091B0
:1024A000FD0A9927BC0180E090E00E94A40580917C
:1024B000FB0A992783709070009741F08091FB0A86
:1024C0009927837090708230910581F40E946A226E
:1024D0008093FE0A8AEF92E00E944B058091FE0AEB
:1024E0009927BC0180E090E00E94A4050E946A2226
:1024F0008093FF0A0E946A228093000B85E093E09C
:102500000E944B058091FF0A282F33278091000BF2
:102510009927B9010E94A4058091FC0A843029F40E
:102520008091FB0A8071882381F00E946A22809347
:10253000010B80E193E00E944B058091010B9927EC
:10254000BC0180E090E00E94A4058091020B8160B4
:102550008093020B8091E70B9091E80B9093040B12
:102560008093030B81E090E09A83898389819A812B
:1025700022960FB6F894DEBF0FBECDBFDF91CF918C
:102580000895CF93DF93CDB7DEB723970FB6F894B6
:10259000DEBF0FBECDBFE091E10AF091E20A828179
:1025A0008B7F82838091030B9091040B9093E80BB7
:1025B0008093E70B8091C40B8093C50B85E09BE073
:1025C0009B838A8319820EC0EA81FB818281847099
:1025D0008823D9F489818F5F89838A819B810396BF
:1025E0009B838A838981853078F38091BF0B8E7FAE
:1025F0008093BF0B0E94E01A8091020B8E7F809324
:10260000020B87E193E00E944B0523960FB6F894E6
:10261000DEBF0FBECDBFDF91CF910895CF93DF9383
:10262000CDB7DEB788E3EEE4FBE0DF01982F1D9223
:102630009A95E9F710924C0B1092370B1092A80B59
:1026400080E090E028E43BE042E050E0BC01C901BA
:102650000E94B40C82E090E020E43BE048E050E0CF
:10266000BC01C9010E94B40C8FEF80934A0B8FEF1D
:1026700080934B0BDF91CF910895CF93DF93CDB72C
:10268000DEB722970FB6F894DEBF0FBECDBF0E9413
:102690001314882349F080914C0B882329F481E09E
:1026A00090E09A83898302C01A82198289819927CE
:1026B00022960FB6F894DEBF0FBECDBFDF91CF914B
:1026C0000895CF93DF93CDB7DEB722970FB6F89476
:1026D000DEBF0FBECDBF80E090EE9A838983ABE36F
:1026E000B0E0EBE3F0E0808180628C9389819A8195
:1026F00001969A83898389819A810097B9F70E940C
:1027000087008823E1F30E94FD1A8091E0090E946E
:1027100084028091A80B88608093A80B22960FB644
:10272000F894DEBF0FBECDBFDF91CF910895CF9358
:10273000DF93CDB7DEB78091A80B8270882329F094
:102740008091A80B8D7F8093A80BDF91CF91089586
:10275000CF93DF93CDB7DEB721970FB6F894DEBFE6
:102760000FBECDBFA8E3B0E0E8E3F0E080818E7F4C
:102770008C938FE70E94FF0B0E941C0C8983A8E3B7
:10278000B0E0E8E3F0E0808181608C938091330BCE
:1027900081508093330B8981992721960FB6F89445
:1027A000DEBF0FBECDBFDF91CF910895CF93DF93F2
:1027B000CDB7DEB723970FB6F894DEBF0FBECDBFFF
:1027C0009A8389836B83A8E3B0E0E8E3F0E080813B
:1027D0008E7F8C938EE30E94FF0B0FC0E981FA81FC
:1027E00080810E94FF0B89819A8101969A83898357
:1027F0008091140B8F5F8093140B8B8181508B839E
:102800008B818F3F59F7A8E3B0E0E8E3F0E08081E7
:1028100081608C9323960FB6F894DEBF0FBECDBFB8
:10282000DF91CF910895CF93DF93CDB7DEB7229795
:102830000FB6F894DEBF0FBECDBF8091A80B82709B
:10284000882399F48091A80B8170882371F080917E
:10285000A80B8870882349F080914C0B883028F4AD
:1028600081E090E09A83898302C01A82198289816B
:10287000992722960FB6F894DEBF0FBECDBFDF9129
:10288000CF910895CF93DF93CDB7DEB721970FB6E1
:10289000F894DEBF0FBECDBF8983A8E3B0E0E8E3C4
:1028A000F0E080818E7F8C938EE30E94FF0B898104
:1028B0000E94FF0BA8E3B0E0E8E3F0E080818160D4
:1028C0008C938091140B8F5F8093140B21960FB61D
:1028D000F894DEBF0FBECDBFDF91CF910895CF93A7
:1028E000DF93CDB7DEB788E080934D0B8091A80BC6
:1028F00082608093A80B8091370B8270882331F01F
:102900008091860B0E94701B80934D0B8091370B3A
:102910008D7F8093370BA8E3B0E0E8E3F0E080819F
:102920008E7F8C9380E80E94FF0B80E00E94FF0B5B
:102930008091140B0E94FF0BA8E3B0E0E8E3F0E005
:10294000808181608C930E94AD141092140B809151
:102950004D0B9927DF91CF910895CF93DF93CDB79A
:10296000DEB722970FB6F894DEBF0FBECDBF0E9430
:10297000410DDC01CB0189838091A80B826080939B
:10298000A80B80E00E94E502A8E3B0E0E8E3F0E0F5
:1029900080818E7F8C9380E00E94FF0B0E941C0C34
:1029A0008A838A81992782709070009709F4F3CF07
:1029B000A8E3B0E0E8E3F0E0808181608C93A8E3D5
:1029C000B0E0E8E3F0E080818E7F8C9385E00E94A8
:1029D000FF0B0E941C0C8A8380E00E94FF0B0E9468
:1029E0001C0C8A838A819927887090700097B9F4AB
:1029F0008981880F89838981882319F089818F3F94
:102A000029F40E94410DDC01CB01898389818A83ED
:102A10008A8181508A838A818F3FD1F7D7CFA8E3FB
:102A2000B0E0E8E3F0E0808181608C930E9434099B
:102A300022960FB6F894DEBF0FBECDBFDF91CF91C7
:102A40000895EF92FF920F931F93CF93DF93CDB72B
:102A5000DEB723970FB6F894DEBF0FBECDBF8EE46E
:102A60009BE09A8389831B8230C0E981FA8180814F
:102A70008170882311F1E981FA8180818270882335
:102A8000E1F40E94410D9B01AC01E981FA81828150
:102A90009381A481B58179018A01E81AF90A0A0BA8
:102AA0001B0BD801C70184369105A105B10528F09B
:102AB000E981FA818081846080838B818F5F8B8341
:102AC00089819A8107969A8389838B81883068F2FD
:102AD00023960FB6F894DEBF0FBECDBFDF91CF9126
:102AE0001F910F91FF90EF900895CF93DF93CDB793
:102AF000DEB722970FB6F894DEBF0FBECDBF0E949F
:102B000021158091A80B8270882341F40E94DF0177
:102B1000882321F080E293E00E944B058091370BDF
:102B20008170882349F084E593E00E944B0581E0A1
:102B300090E09A838983CAC00E941E03882329F4E7
:102B400081E090E09A838983C1C00E947116882336
:102B500049F485E693E00E944B0581E090E09A837A
:102B60008983B4C087E793E00E944B058091370BBF
:102B700081608093370B8091340B80728823B1F091
:102B80008091300B833059F48091310B843039F4CB
:102B90008BE00E94DA178AE00E94DA1703C08AE00D
:102BA0000E94DA1780E993E00E944B058091300B78
:102BB000823059F48091320B0E94351E0E94E01A37
:102BC0008CE993E00E944B057DC08091300B8330EF
:102BD00009F065C084EA93E00E944B058091310BB7
:102BE000873071F480EB93E00E944B058091A80B35
:102BF0008170882311F00E9475190E94E01A62C04A
:102C00008091310B813099F486EC93E00E944B0562
:102C10000E940918882319F40E94E01A53C00E94E8
:102C2000E01A88E49BE060E00E9436184BC0809177
:102C3000310B8630D9F48BED93E00E944B058091E7
:102C4000A80B8170882379F08091330B882319F0C9
:102C50000E94E01A37C00E94E01A88E49BE060E01E
:102C60000E948C182FC00E94E01A2CC08091310B5A
:102C7000833071F480EF93E00E944B050E940819A5
:102C8000882319F40E94E01A1DC00E94E01A1AC09D
:102C900087E094E00E944B050E94E01A13C08091E7
:102CA000300B813029F48DE194E00E944B050AC07D
:102CB0008091300B882331F40E94E01A86E294E080
:102CC0000E944B0581E090E09A83898389819A81F3
:102CD00022960FB6F894DEBF0FBECDBFDF91CF9125
:102CE0000895CF93DF93CDB7DEB725970FB6F8944D
:102CF000DEBF0FBECDBFA8E3B0E0E8E3F0E0808127
:102D00008E7F8C938FE70E94FF0B0E941C0C8B839D
:102D10008B81882309F426C18B818078882309F070
:102D200021C18B8182508093330B0E941C0C8A83BB
:102D30008091330B81508093330B8A818093340BC5
:102D40008A8187708093300B8091300B89838981D1
:102D5000843008F007C10E941C0C8A838091330BD9
:102D600081508093330B8A818093350B8A818C70DC
:102D70008093160B9A8180EC89238093230B0E9409
:102D80001C0C8093320B8091330B81508093330B5A
:102D90008091160B843009F4E5C08091160B8823CE
:102DA000D9F00E941C0C8093210B0E941C0C809374
:102DB000220B81E394E00E944B058091210B282F88
:102DC00033278091220B9927B9010E94A405809195
:102DD000330B82508093330B8091160B8830E1F4D3
:102DE0000E941C0C80931F0B0E941C0C8093200BD4
:102DF0008CE494E00E944B0580911F0B282F332711
:102E00008091200B9927B9010E94A4058091330B72
:102E100082508093330B29C08091160B8C3029F59A
:102E20000E941C0C8093170B0E941C0C8093180BA3
:102E30000E941C0C8093190B0E941C0C80931A0B8F
:102E40000E941C0C80931B0B0E941C0C80931C0B7B
:102E50000E941C0C80931D0B0E941C0C80931E0B67
:102E60008091330B88508093330B8091230B8034F7
:102E700009F478C08091230B882391F08091340B62
:102E80008074882369F40E941C0C80932E0B0E948E
:102E90001C0C80932F0B8091330B82508093330B4B
:102EA0008091230B8038E1F40E941C0C80932C0B42
:102EB0000E941C0C80932D0B8BE694E00E944B0526
:102EC00080912C0B282F332780912D0B9927B90146
:102ED0000E94A4058091330B82508093330B29C04C
:102EE0008091230B803C29F50E941C0C8093240BBD
:102EF0000E941C0C8093250B0E941C0C8093260BB7
:102F00000E941C0C8093270B0E941C0C8093280BA2
:102F10000E941C0C8093290B0E941C0C80932A0B8E
:102F20000E941C0C80932B0B8091330B8850809354
:102F3000330B8091300B833049F48091330B8150F7
:102F40008093330B0E941C0C8093310BA8E3B0E0FC
:102F5000E8E3F0E0808181608C9381E090E09D83E4
:102F60008C831DC0A8E3B0E0E8E3F0E080818160DD
:102F70008C93A8E3B0E0E8E3F0E080818E7F8C934F
:102F800088E00E94FF0B88E00E94FF0BA8E3B0E0FE
:102F9000E8E3F0E0808181608C931D821C828C814B
:102FA0009D8125960FB6F894DEBF0FBECDBFDF9191
:102FB000CF910895CF93DF93CDB7DEB722970FB6A9
:102FC000F894DEBF0FBECDBF8A83A8E3B0E0E8E38C
:102FD000F0E080818E7F8C938A810E94FF0BA8E3B2
:102FE000B0E0E8E3F0E0808181608C9380E4898345
:102FF00001C0000089818F5F898389818823C9F797
:1030000022960FB6F894DEBF0FBECDBFDF91CF91F1
:103010000895CF93DF93CDB7DEB723970FB6F8941B
:10302000DEBF0FBECDBF19828091330B813089F492
:103030008091340B9927877290708332910549F4FF
:103040000E94A8138093360B81E090E09B838A83D3
:1030500002C01B821A828A819B8123960FB6F89444
:10306000DEBF0FBECDBFDF91CF910895CF93DF9329
:10307000CDB7DEB723970FB6F894DEBF0FBECDBF36
:103080009A8389836B838AE894E00E944B0580ECE5
:1030900080933F0B8CE08093230B80914A0B90919F
:1030A0004B0B90932F0B80932E0B83E29BE063E2FC
:1030B0000E94791CA8E3B0E0E8E3F0E080818E7F15
:1030C0008C938EE30E94FF0B82E00E94FF0BE9814C
:1030D000FA8180810E94FF0BE981FA8181810E943F
:1030E000FF0B8B810E94FF0BA8E3B0E0E8E3F0E068
:1030F000808181608C938091140B8C5F8093140B82
:103100000E946F14992723960FB6F894DEBF0FBE66
:10311000CDBFDF91CF910895CF93DF93CDB7DEB7C9
:1031200024970FB6F894DEBF0FBECDBF9B838A8372
:103130006C8380EC80933F0B8C81882331F48CE08E
:103140008093230B83E289830BC088E08093230B59
:103150008FEF9FEF90932D0B80932C0B83E089834F
:103160008FEF9FEF90932F0B80932E0B83E29BE0CA
:1031700069810E94791CA8E3B0E0E8E3F0E0808177
:103180008E7F8C938EE30E94FF0B88E00E94FF0BE2
:1031900080914A0B0E94FF0B80914B0B0E94FF0B0A
:1031A0008091480B0E94FF0B8091490B0E94FF0BFE
:1031B00080913A0B0E94FF0B8C81882359F4EA819D
:1031C000FB8180810E94FF0BEA81FB8181810E944B
:1031D000FF0B06C08FEF0E94FF0B8FEF0E94FF0BCB
:1031E000A8E3B0E0E8E3F0E0808181608C93809117
:1031F000140B885F8093140B0E946F1499272496F8
:103200000FB6F894DEBF0FBECDBFDF91CF9108950A
:10321000CF93DF93CDB7DEB722970FB6F894DEBF1A
:103220000FBECDBF8091330B8130D1F48091340B30
:103230009927877290708332910591F48091350BB4
:10324000282F33278CEC90E0822393238C3C91052C
:1032500039F40E94A81381E090E09A83898302C028
:103260001A82198289819A8122960FB6F894DEBF5C
:103270000FBECDBFDF91CF910895CF93DF93CDB730
:10328000DEB710923F0B88E08093870B8FEF9FEFA4
:103290009093910B8093900B8FEF9FEF9093930BF4
:1032A0008093920B87E89BE063E00E94791CA8E37F
:1032B000B0E0E8E3F0E080818E7F8C938EE30E94A3
:1032C000FF0B87E00E94FF0BA8E3B0E0E8E3F0E02B
:1032D000808181608C938091140B8F5F8093140B9D
:1032E0000E946F14DF91CF910895CF93DF93CDB7F4
:1032F000DEB780E880933F0B1092A90B89EA9BE030
:1033000060E00E94791CA8E3B0E0E8E3F0E080818F
:103310008E7F8C938EE30E94FF0B8FEF0E94FF0B3A
:1033200080EC0E94FF0B80E00E94FF0B80E00E9477
:10333000FF0B80E00E94FF0B80E10E94FF0B80E802
:103340000E94FF0BA8E3B0E0E8E3F0E08081816039
:103350008C938091140B895F8093140B0E946F14DF
:1033600089E994E00E944B05DF91CF910895CF93B6
:10337000DF93CDB7DEB721970FB6F894DEBF0FBE4F
:10338000CDBF89838981882311F00E943D190E9455
:10339000410DDC01CB0180933B0B90933C0BA09340
:1033A0003D0BB0933E0B1092380B21960FB6F8945C
:1033B000DEBF0FBECDBFDF91CF910895CF93DF93D6
:1033C000CDB7DEB721970FB6F894DEBF0FBECDBFE5
:1033D00019828091370B8170882389F08091300B9E
:1033E000882351F483EB94E00E944B050E94211A3C
:1033F000882311F081E089830E94E01A17C00E949F
:10340000410DDC01CB0120913B0B30913C0B4091F5
:103410003D0B50913E0B821B930BA40BB50B8436D6
:103420009105A105B10510F081E089838981992773
:1034300021960FB6F894DEBF0FBECDBFDF91CF91BE
:103440000895CF93DF93CDB7DEB721970FB6F894E9
:10345000DEBF0FBECDBF19828091330B843008F4DC
:103460005EC01092A70B8091230B803C31F58091B8
:10347000A70B81608093A70B8091240B8093960B00
:103480008091250B8093970B8091260B8093980B4E
:103490008091270B8093990B8091280B80939A0B36
:1034A0008091290B80939B0B80912A0B80939C0B1E
:1034B00080912B0B80939D0B08C080912C0B9091D9
:1034C0002D0B9093970B8093960B80912E0B9091E0
:1034D0002F0B9093950B8093940B80913A0B8093D4
:1034E0009E0B0E94A81380939F0B0E94A8138093A9
:1034F000A00B0E94410DDC01CB018093A20B9093A5
:10350000A30BA093A40BB093A50B88E08093A60B0C
:103510008091380B8F5F8093380B81E0898389819C
:10352000992721960FB6F894DEBF0FBECDBFDF916D
:10353000CF910895CF93DF93CDB7DEB70E94410DB1
:10354000DC01CB0180933B0B90933C0BA0933D0B94
:10355000B0933E0B80E00E94E502DF91CF91089589
:10356000CF93DF93CDB7DEB722970FB6F894DEBFC7
:103570000FBECDBF0E94410DDC01CB0120913B0B62
:1035800030913C0B40913D0B50913E0B821B930BB5
:10359000A40BB50B1A8219828C309105A105B105D7
:1035A00020F081E090E09A83898389819A81229634
:1035B0000FB6F894DEBF0FBECDBFDF91CF91089557
:1035C000CF93DF93CDB7DEB78091330B8E5F8093BF
:1035D000330B8091330B823039F08091330B809321
:1035E000330B02C00E94A8138091330B8823D1F7BC
:1035F0001092370BDF91CF910895CF93DF93CDB722
:10360000DEB7A8E3B0E0E8E3F0E080818E7F8C9342
:1036100080EE0E94FF0B80E80E94FF0B8091400B20
:103620000E94FF0B8091410B0E94FF0B8091420B87
:103630000E94FF0B8091430B0E94FF0B8091440B73
:103640000E94FF0B8091450B0E94FF0B8091460B5F
:103650000E94FF0B8091470B0E94FF0BA8E3B0E094
:10366000E8E3F0E0808181608C93A8E3B0E0E8E3D8
:10367000F0E080818E7F8C9388EE0E94FF0B80E8C3
:103680000E94FF0B80914A0B0E94FF0B80914B0B15
:103690000E94FF0BA8E3B0E0E8E3F0E080818160E6
:1036A0008C93A8E3B0E0E8E3F0E080818E7F8C9318
:1036B0008AEE0E94FF0B80E80E94FF0B8091480B6E
:1036C0000E94FF0B8091490B0E94FF0BA8E3B0E022
:1036D000E8E3F0E0808181608C93DF91CF910895E1
:1036E000CF93DF93CDB7DEB726970FB6F894DEBF42
:1036F0000FBECDBF8C838EE49BE09A8389831B82AF
:1037000041C0E981FA8180818170882399F5E9813E
:10371000FA81808181608083E981FA8180818D7F57
:103720008083E981FA818C8181830E94410DDC01D3
:10373000CB01E981FA8182839383A483B583E981F4
:10374000FA8184E0868380914C0B8F5F80934C0BD1
:103750008B819927C096BC0180E090E00E94A4056F
:1037600083EC94E00E944B058B81282F33273E8306
:103770002D8314C089819A8107969A8389838B81CE
:103780008F5F8B838B81883008F4BBCF84EE94E00D
:103790000E944B0588E090E09E838D838D819E8101
:1037A00026960FB6F894DEBF0FBECDBFDF91CF9146
:1037B0000895CF93DF93CDB7DEB721970FB6F89476
:1037C000DEBF0FBECDBF89838981282F3327C90172
:1037D000880F991F880F991F880F991F821B930BC1
:1037E000FC01E25BF44F808181708823E9F08981DC
:1037F000282F3327C901880F991F880F991F880F19
:10380000991F821B930BFC01E25BF44F10828091A5
:103810004C0B815080934C0B8981805D0E94370551
:1038200086E095E00E944B0521960FB6F894DEBF26
:103830000FBECDBFDF91CF910895CF93DF93CDB76A
:10384000DEB724970FB6F894DEBF0FBECDBF8A83D4
:103850008A81805D0E9437058A81883039F48BE245
:1038600095E00E944B051C821B8238C08A81282F5C
:103870003327C901880F991F880F991F880F991F37
:10388000821B930BFC01E25BF44F808181708823E3
:10389000D9F08A81282F3327C901880F991F880FF3
:1038A000991F880F991F821B930BFC01E25BF44F59
:1038B00080818695817089838981882351F08AE38C
:1038C00095E00E944B0505C08EE495E00E944B05F3
:1038D00019828981282F33273C832B838B819C81FC
:1038E00024960FB6F894DEBF0FBECDBFDF91CF9107
:1038F0000895CF93DF93CDB7DEB726970FB6F89430
:10390000DEBF0FBECDBF9D838C836E838E819927D2
:1039100080729070009731F08091370B82608093B5
:10392000370B05C08091370B8D7F8093370BA8E351
:10393000B0E0E8E3F0E080818E7F8C9389E00E9424
:10394000FF0BA8E3B0E0E8E3F0E0808181608C93B6
:1039500081E00E94370582E00E94370583E00E94E3
:10396000370584E00E94370585E00E943705A8E30B
:10397000B0E0E8E3F0E080818E7F8C938EE30E94DC
:10398000FF0B80E00E94FF0B8E819927837090705F
:103990008230910541F0EC81FD8180818B838091A3
:1039A0003F0B8A8302C01B821A829B818A81892BEA
:1039B00089838E810E94FF0B8E810E943705898149
:1039C0000E94FF0B89810E9437058E8199278370A1
:1039D00090708230910549F48091320B0E94FF0B68
:1039E0008091320B0E94370511C08091860B8F5F4A
:1039F0008093860B8091860B0E94FF0B8091860B33
:103A00000E9437058091860B8093390B85E0809367
:103A1000140B8B818823C9F0EC81FD8183850E9482
:103A2000FF0BEC81FD8184850E94FF0BEC81FD8101
:103A300084850E943705EC81FD8183850E943705CE
:103A40008091140B8E5F8093140B8B81883021F54D
:103A5000EC81FD8181850E94FF0BEC81FD818185D8
:103A60000E943705EC81FD8182850E94FF0BEC816D
:103A7000FD8182850E943705EC81FD8182850E944F
:103A80003705EC81FD8181850E9437058091140BFB
:103A90008E5F8093140B59C08B818C3009F055C018
:103AA000EC81FD8181810E94FF0BEC81FD81818190
:103AB0000E943705EC81FD8182810E94FF0BEC8121
:103AC000FD8182810E943705EC81FD8183810E9406
:103AD000FF0BEC81FD8183810E943705EC81FD8124
:103AE00084810E94FF0BEC81FD8184810E94370557
:103AF000EC81FD8185810E94FF0BEC81FD81858138
:103B00000E943705EC81FD8186810E94FF0BEC81CC
:103B1000FD8186810E943705EC81FD8187810E94AD
:103B2000FF0BEC81FD8187810E943705EC81FD81CF
:103B300080850E94FF0BEC81FD8180850E94370506
:103B40008091140B885F8093140BFE013696808160
:103B500080748823C1F48A818823A9F080914A0B5C
:103B60000E94FF0B80914A0B0E94370580914B0BFE
:103B70000E94FF0B80914B0B0E9437058091140B24
:103B80008E5F8093140B8A818038B1F48091480B4A
:103B90000E94FF0B8091480B0E9437058091490BD2
:103BA0000E94FF0B8091490B0E9437058091140BF6
:103BB0008E5F8093140B49C08A81803C09F045C018
:103BC0008091400B0E94FF0B8091400B0E943705B3
:103BD0008091410B0E94FF0B8091410B0E943705A1
:103BE0008091420B0E94FF0B8091420B0E9437058F
:103BF0008091430B0E94FF0B8091430B0E9437057D
:103C00008091440B0E94FF0B8091440B0E9437056A
:103C10008091450B0E94FF0B8091450B0E94370558
:103C20008091460B0E94FF0B8091460B0E94370546
:103C30008091470B0E94FF0B8091470B0E94370534
:103C40008091140B885F8093140BA8E3B0E0E8E345
:103C5000F0E0808181608C9326960FB6F894DEBFE9
:103C60000FBECDBFDF91CF910895CF93DF93CDB736
:103C7000DEB724970FB6F894DEBF0FBECDBF8C839E
:103C80008EE49BE09A8389831B821AC0E981FA81C2
:103C900080818170882361F0E981FA8191818C8132
:103CA000981731F4E981FA818081826080830BC0AA
:103CB0008B818F5F8B8389819A8107969A83898311
:103CC0008B81883018F324960FB6F894DEBF0FBEB0
:103CD000CDBFDF91CF910895CF93DF93CDB7DEB7FE
:103CE00027970FB6F894DEBF0FBECDBF9A838983A6
:103CF00089819A8122E030E048E050E0BC01C901AE
:103D00000E94790C89819A8120E43BE03C832B83DB
:103D10009E838D8338E03F83ED81FE8100802D817D
:103D20003E812F5F3F4F3E832D83EB81FC810082DC
:103D30002B813C812F5F3F4F3C832B833F81315050
:103D40003F838F81882341F727960FB6F894DEBF13
:103D50000FBECDBFDF91CF910895CF93DF93CDB745
:103D6000DEB722970FB6F894DEBF0FBECDBF9A83A1
:103D7000898389819A8120E030E042E050E0BC01F3
:103D8000C9010E94790CE981FA8180818093480BF6
:103D9000E981FA8181818093490B22960FB6F894CC
:103DA000DEBF0FBECDBFDF91CF910895CF93DF93DC
:103DB000CDB7DEB722970FB6F894DEBF0FBECDBFEA
:103DC00082E090E020E43BE048E050E0BC01C90123
:103DD0000E94B40C8091470B882341F48091460BDC
:103DE000843021F48091450B833A19F01A821982AC
:103DF00004C081E090E09A83898389819A81229628
:103E00000FB6F894DEBF0FBECDBFDF91CF910895FE
:103E1000AF92BF92CF92DF92EF92FF920F931F93D8
:103E2000CF93DF93CDB7DEB764970FB6F894DEBFBC
:103E30000FBECDBF8F838F81282F3327C901880FF5
:103E4000991F820F931F880F991F8A53944F9E01C9
:103E50002F5F3F4F398728879B878A8736E03C87CB
:103E6000EA85FB8500802A853B852F5F3F4F3B8796
:103E70002A87E885F9850082288539852F5F3F4F9D
:103E8000398728873C8531503C878C85882341F7CA
:103E900089819A812B813C814D815E818D879E87AE
:103EA0002F87388B498B5A8BAD84BE84CF84D888BA
:103EB000E988FA880B891C892A2D3B2D4C2D5D2D14
:103EC0006E2D7F2D802F912F64960FB6F894DEBF54
:103ED0000FBECDBFDF91CF911F910F91FF90EF905B
:103EE000DF90CF90BF90AF900895CF93DF93CDB781
:103EF000DEB71092E40B1092BF0B1092E80B1092F9
:103F0000E70B0E9417230E940E13DF91CF910895B3
:103F1000CF93DF93CDB7DEB728970FB6F894DEBF07
:103F20000FBECDBF0E9475158091370B817088231D
:103F300029F421E030E038872F8330C18091BF0B16
:103F40008170882349F083E695E00E944B0581E06B
:103F500090E098878F8322C18091300B813009F0E7
:103F600019C18091A80B8170882309F413C10E94A4
:103F7000C821882309F40EC18091B70B992783705B
:103F800090708130910509F06EC00E946A228C8386
:103F90008C81282F33273E832D838D819E81823013
:103FA000910539F12D813E812330310534F48D8125
:103FB0009E818130910561F04EC02D813E8123307C
:103FC000310541F18D819E8185309105A1F143C07C
:103FD0008091C50B482F55278091E70B9091E80BF6
:103FE00020912C0B30912D0BBC01C9010E946C2338
:103FF00032C08091C50B482F55278091E70B9091D7
:10400000E80B20912C0B30912D0BBC01C9010E94B3
:10401000FA2321C08091C50B482F55278091E70BCB
:104020009091E80B20912C0B30912D0BBC01C90114
:104030000E944E2410C08091C50B482F55278091B7
:10404000E70B9091E80B20912C0B30912D0BBC01CC
:10405000C9010E94EE248091BF0B8E7F8093BF0B1D
:104060000E94E01A97C08091B70B992783709070D7
:10407000009709F08FC02091B90B3091BA0B809155
:10408000480B9091490B2817390729F421E030E0BB
:1040900038872F8383C08091B90B9091BA0B0E940F
:1040A000F4299B838A838091BF0B8E7F8093BF0B03
:1040B0000E94E01A8A819B81009709F46BC0EA8113
:1040C000FB8183858270882309F464C088E0809333
:1040D000A90B80914A0B90914B0B9093B50B809359
:1040E000B40BEA81FB81858196819093B30B809319
:1040F000B20B8091B90B9091BA0BE9EAFBE09C01FD
:1041000040E064E0CF010E947D212091C50B8091A9
:10411000E70B9091E80B622F0E94D6130E946F1458
:1041200089838981805D0E94370589E795E00E9437
:104130004B050E94751589810E941D1C882341F042
:1041400089810E94D91B87E895E00E944B0522C017
:104150008981282F3327C901880F991F880F991F3C
:10416000880F991F821B930BFC01E25BF44F808147
:104170008695869581708823E1F282EA95E00E9417
:104180004B05EA81FB81858196810E94A727898161
:104190000E94D91B81E090E098878F838F8198855A
:1041A00028960FB6F894DEBF0FBECDBFDF91CF913A
:1041B0000895CF93DF93CDB7DEB78BE00E948402E2
:1041C0001092B60B8091E40B8E7F8093E40B87EB0B
:1041D00095E00E944B05DF91CF910895CF93DF9337
:1041E000CDB7DEB725970FB6F894DEBF0FBECDBFB3
:1041F0008091B60B282F33273D832C838C819D81A2
:1042000081309105D9F12C813D81223031052CF48A
:104210008C819D81009761F063C02C813D812230AB
:104220003105D1F18C819D818430910589F058C090
:104230008091E0090E944909882321F484E0809359
:10424000B60B4EC00E949A1A81E08093B60B48C00C
:104250000E945B02882379F482ED95E00E944B0571
:1042600082E08093DF0A81E00E94E50221E030E0F5
:104270003B832A8337C01092B60B32C00E94B01A1B
:10428000882371F10E94BC02898381E00E94B719E2
:1042900082E08093B60B24C00E94DE19882301F1CE
:1042A0008091380B882351F087E096E00E944B05FF
:1042B0008091E40B81608093E40B05C08091E40B56
:1042C0008E7F8093E40B1092DF0A84E08093B60B1C
:1042D00081E00E94E50281E090E09B838A8302C036
:1042E0001B821A828A819B8125960FB6F894DEBFC5
:1042F0000FBECDBFDF91CF910895CF93DF93CDB7A0
:10430000DEB726970FB6F894DEBF0FBECDBF9A83F7
:1043100089836B834C833E832D8380E880933F0B9E
:10432000E981FA81818592852FEF8F3F920731F4E1
:1043300089819A8161E40E94791C05C089819A81F2
:1043400061E60E94791C8B810E9442148C810E943C
:1043500042148D810E9442148E810E9442148091E9
:10436000480B0E9442148091490B0E944214809194
:10437000BD0B0E9442148091BE0B0E9442142696EF
:104380000FB6F894DEBF0FBECDBFDF91CF91089579
:104390000F931F93CF93DF93CDB7DEB722970FB65E
:1043A000F894DEBF0FBECDBF8091330B863018F47A
:1043B0001A82198282C00E94A8138093B70B0E94B0
:1043C000A8138093B80B8091B70B99278C739070CA
:1043D0008430910519F01A8219826FC08091B80B50
:1043E0008270882319F01A82198267C00E94A8136C
:1043F0008093B90B0E94A8138093BA0B0E94A81354
:104400008093BB0B0E94A8138093BC0B0E94A8133F
:104410008093BD0B0E94A8138093BE0B8091BF0BAD
:1044200081608093BF0B8091E70B9091E80B009720
:1044300041F08091C00B9091C10B0E94B42D10925D
:10444000C50B8091330B99270E94112D9093E80B97
:104450008093E70B8091E70B9091E80B9093C10B51
:104460008093C00B8091330B8093C50B8091330BED
:104470008093C40B0EC00091E70B1091E80B0E94D3
:10448000A813F8018083C80101969093E80B8093EC
:10449000E70B8091330B882371F70E94A8130E94C9
:1044A000A8138091C00B9091C10B9093E80B80935F
:1044B000E70B81E090E09A83898389819A81229633
:1044C0000FB6F894DEBF0FBECDBFDF91CF911F9125
:1044D0000F910895CF93DF93CDB7DEB78091C50BD1
:1044E00081508093C50BE091E70BF091E80B808140
:1044F000282F3327CF0101969093E80B8093E70B89
:10450000C901DF91CF910895CF93DF93CDB7DEB787
:1045100024970FB6F894DEBF0FBECDBF9B838A836E
:104520006C8319821BC0A091E70BB091E80B8C91B2
:10453000EA81FB8180838A819B8101969B838A83A8
:10454000CD0101969093E80B8093E70B8091C50B0A
:1045500081508093C50B89818F5F89838C818150C5
:104560008C838C818F3F21F08091C50B8823D9F6F5
:104570008981992724960FB6F894DEBF0FBECDBF70
:10458000DF91CF910895CF93DF93CDB7DEB7229718
:104590000FB6F894DEBF0FBECDBF0E94EE20882379
:1045A00099F08091DF0A882329F081E090E09A83D6
:1045B00089830CC08091E40B8170882329F481E009
:1045C00090E09A83898302C01A82198289819A8134
:1045D00022960FB6F894DEBF0FBECDBFDF91CF910C
:1045E0000895CF93DF93CDB7DEB7ECE4F0E08081A0
:1045F00080934A0BEDE4F0E080818F7380934B0B46
:1046000085E580934A0B85E580934B0B1092480B10
:104610001092490B0E94FD1A80E00E94E5028091F1
:10462000A80B81608093A80BDF91CF910895CF9361
:10463000DF93CDB7DEB70E94D5280E945F2BDF91B4
:10464000CF910895CF93DF93CDB7DEB72A970FB6FA
:10465000F894DEBF0FBECDBF98878F830E94410DB7
:10466000DC01CB018B839C83AD83BE830E94881FBA
:104670000E94410DDC01CB012B813C814D815E818B
:10468000821B930BA40BB50B8A3F9105A105B105C5
:1046900008F4ECCF8F8198850E94F4299A8389834E
:1046A00089819A81009759F0E981FA818385827026
:1046B000882329F081E090E09A87898702C01A86D2
:1046C000198689859A852A960FB6F894DEBF0FBEA3
:1046D000CDBFDF91CF910895CF93DF93CDB7DEB7F4
:1046E00028970FB6F894DEBF0FBECDBF9C838B8397
:1046F0007E836D8358874F83ED81FE8124813581D0
:10470000ED81FE8182859385B9010E94B72B0097C8
:1047100009F067C08CE396E00E944B05ED81FE81B5
:1047200044815581ED81FE8126813781ED81FE81B5
:1047300082859385B9010E946A2BED81FE81838178
:104740008F5FED81FE818383ED81FE812381ED8189
:10475000FE8144855585ED81FE810284F385E02D3F
:104760008B819C81BC01CF010E94E42A2091480BDF
:104770003091490BED81FE81868197812817390799
:1047800029F48D819E810E9428262BC0ED81FE8117
:10479000868197810E94F4299A83898389819A81ED
:1047A0000097D9F0E981FA81838584708823A9F084
:1047B000ED81FE8120853185E981FA8182819381B5
:1047C000B9010E94DA2C882341F0E981FA818281C3
:1047D0009381ED81FE81918780878D819E810E94EA
:1047E000E82528960FB6F894DEBF0FBECDBFDF9147
:1047F000CF910895CF93DF93CDB7DEB726970FB64D
:10480000F894DEBF0FBECDBF9A8389837C836B8310
:104810005E834D8383E596E00E944B05EB81FC812E
:1048200081818074882321F089819A810E945A278E
:10483000EB81FC8184818F5FEB81FC818483EB8140
:10484000FC812481EB81FC8147815085EB81FC81D7
:104850000580F681E02D89819A81BC01CF010E94FB
:10486000E42A2091480B3091490BEB81FC81818532
:1048700092852817390729F488E696E00E944B05AF
:1048800004C08B819C810E94EF2626960FB6F89477
:10489000DEBF0FBECDBFDF91CF910895CF93DF93E1
:1048A000CDB7DEB762970FB6F894DEBF0FBECDBFAF
:1048B0009E878D87788B6F875A8B498B1C861B86CA
:1048C0001A86198618861F821E821D821C821B82F0
:1048D0008DE796E00E944B058F85988904969A870C
:1048E00089871A8219825AC0E985FA858081918167
:1048F0000E94F4299C878B878B859C85009709F4FF
:1049000043C0EB85FC85838581708823E9F5EB85C1
:10491000FC85838582708823B9F1EB85FC858385CE
:104920008D7F8387E985FA8582819381EB85FC857C
:104930009383828386E090E00E94112D9E838D8375
:104940008D819E81009709F440C0ED81FE818F81A9
:104950009885958384838D819E8198878F83E9854F
:10496000FA8580819181ED81FE8191838083E98543
:10497000FA8582819381ED81FE81938382838B818D
:104980009C8101969C838B8389859A8504969A875E
:10499000898789819A8101969A838983EF85F8892D
:1049A0008381282F332789819A81821793070CF4FA
:1049B0009BCF8B819C81009741F08B819C812F81C3
:1049C0003885BC01C9010E942D2862960FB6F89463
:1049D000DEBF0FBECDBFDF91CF910895CF93DF93A0
:1049E000CDB7DEB726970FB6F894DEBF0FBECDBFAA
:1049F0009A8389837C836B835E834D8382E996E00F
:104A00000E944B0526960FB6F894DEBF0FBECDBFB1
:104A1000DF91CF910895CF93DF93CDB7DEB728977D
:104A20000FB6F894DEBF0FBECDBF98878F838EE0A0
:104A300090E00E94112D9E838D838D819E81009731
:104A400009F4BDC08F8198850E94F4299C838B83D3
:104A50008B819C810097A1F0EB81FC818385847020
:104A6000882371F0EB81FC8182819381ED81FE814D
:104A700091878087ED81FE8181818860818309C073
:104A8000ED81FE8111861086ED81FE818181877F17
:104A90008183ED81FE818F81988597838683ED8167
:104AA000FE8185E68083ED81FE811282ED81FE81AB
:104AB00081818F778183ED81FE8181818F7B8183ED
:104AC000ED81FE81818180618183ED81FE81818123
:104AD0008F7D8183ED81FE8113828091480B9091BF
:104AE000490B0E94F4299A83898389819A810097CE
:104AF00009F465C0E981FA8180819181ED81FE81AF
:104B000093878287E981FA81848595850196E98179
:104B1000FA8195878487E981FA8184859585ED817D
:104B2000FE8195838483E981FA8182819381019654
:104B3000E981FA8193838283E981FA818281938179
:104B4000ED81FE8195878487ED81FE8144815581C9
:104B5000ED81FE81868197812091480B3091490B30
:104B6000BC01C9010E946A2B88E08093A90B809147
:104B70004A0B90914B0B9093B50B8093B40B8FEF36
:104B80009FEF9093B30B8093B20B8091B20B9091F7
:104B9000B30BE9EAFBE09C0140E065E0CF010E9435
:104BA0007D2181E00E9442148D819E816EE00E94F1
:104BB000D6130E946F148BEA96E00E944B0528964C
:104BC0000FB6F894DEBF0FBECDBFDF91CF91089531
:104BD000CF93DF93CDB7DEB722970FB6F894DEBF41
:104BE0000FBECDBF9A83898388E08093A90B809103
:104BF0004A0B90914B0B9093B50B8093B40B8FEFB6
:104C00009FEF9093B30B8093B20B8091B20B909176
:104C1000B30BE9EAFBE09C0140E065E0CF010E94B4
:104C20007D2181E00E94421489819A816EE00E9478
:104C3000D6130E946F148FEB96E00E944B052296CC
:104C40000FB6F894DEBF0FBECDBFDF91CF910895B0
:104C5000CF93DF93CDB7DEB727970FB6F894DEBFBB
:104C60000FBECDBF9F838E838DE090E00E94112DFB
:104C70009D838C838C819D81009709F4A7C0EC8172
:104C8000FD8186E68083EC81FD8181818F7B81833C
:104C9000EC81FD8181818F778183EC81FD8112829E
:104CA000EC81FD811382EE81FF8186819781EC8109
:104CB000FD8196838583EE81FF81868197810E94A5
:104CC000F4299B838A83EA81FB8122813381EE81EF
:104CD000FF8180859185B9010E94DA2C882349F0F3
:104CE000EE81FF81808591850196EA81FB81938326
:104CF0008283EA81FB8182819381EC81FD819087AF
:104D00008783EC81FD811482EE81FF81828593850A
:104D1000EC81FD8192878187EC81FD811486138669
:104D200088E08093A90B80914A0B90914B0B909354
:104D3000B50B8093B40BEE81FF81828593850E9431
:104D4000F429FC01858196819093B30B8093B20B7B
:104D50008091B20B9091B30BE9EAFBE09C0140E03B
:104D600065E0CF010E947D2182E00E9442148C8187
:104D70009D816DE00E94D6130E946F1489830E946A
:104D8000751589810E941D1C882321F089810E944C
:104D9000D91B18C08981282F3327C901880F991F73
:104DA000880F991F880F991F821B930BFC01E25BF0
:104DB000F44F8081869586958170882301F38981DF
:104DC0000E94D91B86ED96E00E944B0527960FB6F0
:104DD000F894DEBF0FBECDBFDF91CF910895CF9382
:104DE000DF93CDB7DEB723970FB6F894DEBF0FBEC3
:104DF000CDBF9B838A8388E08093A90B80914A0B67
:104E000090914B0B9093B50B8093B40BEA81FB818F
:104E1000818592850E94F429FC0185819681909379
:104E2000B30B8093B20B8091B20B9091B30BE9EA74
:104E3000FBE09C0140E065E0CF010E947D2182E023
:104E40000E9442148A819B816DE00E94D6130E94C9
:104E50006F1489830E94751589810E941D1C882307
:104E600021F089810E94D91B18C08981282F3327FE
:104E7000C901880F991F880F991F880F991F821BDE
:104E8000930BFC01E25BF44F8081869586958170DF
:104E9000882301F389810E94D91B88EE96E00E9445
:104EA0004B0523960FB6F894DEBF0FBECDBFDF9142
:104EB000CF910895CF93DF93CDB7DEB724970FB688
:104EC000F894DEBF0FBECDBF9C838B8382E090E061
:104ED0000E94112D9A838983E981FA8188E6808373
:104EE000E981FA81118288E08093A90B80914A0BB5
:104EF00090914B0B9093B50B8093B40B8B819C815D
:104F00009093B30B8093B20B8091B20B9091B30B43
:104F1000E9EAFBE09C0140E065E0CF010E947D21D1
:104F200085E00E94421489819A8162E00E94D61332
:104F30000E946F148DEF96E00E944B0524960FB6E9
:104F4000F894DEBF0FBECDBFDF91CF910895CF9310
:104F5000DF93CDB7DEB72A970FB6F894DEBF0FBE4A
:104F6000CDBF9A8789878091E50B9091E60B988752
:104F70008F831E821D821C821B821A82198253C05B
:104F8000EF81F8852581368189859A85281739072B
:104F900009F043C0EF81F885838581708823E9F5A6
:104FA000EF81F885838582708823B9F1EF81F885D8
:104FB00083858D7F8387EF81F88582819381019638
:104FC000EF81F8859383828386E090E00E94112D23
:104FD0009C838B838B819C810097B1F1EF81F88555
:104FE00080819181EB81FC8191838083EF81F885C1
:104FF00082819381EB81FC8193838283EB81FC81AD
:105000008D819E81958384838B819C819E838D83FA
:1050100089819A8101969A838983EF81F8858089B5
:10502000918998878F838F819885009709F0A8CF01
:1050300089819A81009741F089819A812D813E81F1
:10504000BC01C9010E942D282A960FB6F894DEBF34
:105050000FBECDBFDF91CF910895CF93DF93CDB732
:10506000DEB72E970FB6F894DEBF0FBECDBF9C877C
:105070008B877E876D871A86198618861F828D8595
:105080009E85880F991F880F991F04969E838D8394
:105090001C821B828D859E85009709F47DC08D81C1
:1050A0009E810E94112D9C838B838B819C81009714
:1050B00009F472C08B819C819A838983E981FA818A
:1050C00087E68083E981FA8181818F778183E98115
:1050D000FA8112828D85E981FA8183838B819C819B
:1050E00004969A87898728C0EB85FC858081918109
:1050F000E985FA8591838083EB85FC8582819381A4
:10510000E985FA85938382838B859C8598878F8335
:10511000EB85FC85848195819C878B8789859A8521
:1051200004969A8789878D859E8501979E878D87AE
:105130008F8198850E94B42D8D859E850097A1F65C
:1051400088E08093A90B80914A0B90914B0B909330
:10515000B50B8093B40B8FEF9FEF9093B30B8093BD
:10516000B20B8091B20B9091B30BE9EAFBE09C018A
:1051700040E065E0CF010E947D2183E00E9442145F
:105180002D818B819C81622F0E94D6130E946F1407
:105190008DE097E00E944B052E960FB6F894DEBF87
:1051A0000FBECDBFDF91CF910895CF93DF93CDB7E1
:1051B000DEB722970FB6F894DEBF0FBECDBF1092B8
:1051C000E60B1092E50B8091480B9091490B0E94E1
:1051D0000B299A838983E981FA818385816083879A
:1051E000E981FA81838582608387E981FA818385F9
:1051F000846083878091480B9091490BE981FA8103
:105200009683858322960FB6F894DEBF0FBECDBF7E
:10521000DF91CF910895CF93DF93CDB7DEB7269777
:105220000FB6F894DEBF0FBECDBF9C838B8382E1A7
:1052300090E00E94112D9A83898389819A81009739
:1052400019F41E821D8238C0E981FA818B819C810C
:1052500091838083E981FA8113821282E981FA8144
:105260001482E981FA8112861186E981FA81168217
:105270001582E981FA8115861486E981FA81838590
:105280008E7F8387E981FA8183858D7F8387E9819A
:10529000FA8183858B7F8387E981FA81118A108A5D
:1052A000E981FA811786168689819A810E94672989
:1052B00089819A819E838D838D819E8126960FB6EA
:1052C000F894DEBF0FBECDBFDF91CF910895CF938D
:1052D000DF93CDB7DEB726970FB6F894DEBF0FBECB
:1052E000CDBF9E838D838091E50B9091E60B009757
:1052F00039F48D819E819093E60B8093E50B6BC012
:105300008091E50B9091E60B9C838B831A82198226
:105310000AC08B819C819A838983EB81FC8180897F
:1053200091899C838B838B819C81009759F0EB81C1
:10533000FC8120813181ED81FE818081918128175E
:10534000390738F38B819C810097E1F02091E50BC0
:105350003091E60B8B819C818217930799F4EB8146
:10536000FC818D819E8197878687ED81FE818B816F
:105370009C81918B808B8D819E819093E60B809395
:10538000E50B29C08B819C81009769F4E981FA8142
:105390008D819E81918B808BED81FE8189819A81A7
:1053A0009787868718C0E981FA818D819E81918BCC
:1053B000808BED81FE8189819A8197878687ED8137
:1053C000FE818B819C81918B808BEB81FC818D8117
:1053D0009E819787868726960FB6F894DEBF0FBE0C
:1053E000CDBFDF91CF910895CF93DF93CDB7DEB7D7
:1053F00026970FB6F894DEBF0FBECDBF9E838D8378
:105400008091E50B9091E60B9C838B831A82198225
:1054100013C0EB81FC81208131818D819E81281711
:10542000390721F48B819C819A838983EB81FC81EC
:10543000808991899C838B838B819C81009749F023
:10544000EB81FC81208131818D819E8182179307C0
:1054500000F789819A8126960FB6F894DEBF0FBEB9
:10546000CDBFDF91CF910895CF93DF93CDB7DEB756
:1054700022970FB6F894DEBF0FBECDBF8091E50B2B
:105480009091E60B9A8389830CC0E981FA81808927
:1054900091899A838983E981FA81868597850E941B
:1054A000B42D89819A81009781F71092E60B1092B2
:1054B000E50B22960FB6F894DEBF0FBECDBFDF918D
:1054C000CF910895CF93DF93CDB7DEB726970FB670
:1054D000F894DEBF0FBECDBF9E838D838091E50B18
:1054E0009091E60B9C838B831A82198213C0EB8107
:1054F000FC81208131818D819E812817390721F41B
:105500008B819C819A838983EB81FC81808991893D
:105510009C838B838B819C81009749F0EB81FC817C
:10552000208131818D819E818217930700F78981C7
:105530009A81009709F43FC02091E50B3091E60B6A
:1055400089819A818217930781F4E091E50BF091AC
:10555000E60B808991899093E60B8093E50BE091AF
:10556000E50BF091E60B17861686E981FA818685B0
:105570009785009759F0E981FA81A685B785E98179
:10558000FA8180899189FD01918B808BE981FA8173
:1055900080899189009759F0E981FA81A089B189C0
:1055A000E981FA8186859785FD01978786878981BC
:1055B0009A810E94B42D26960FB6F894DEBF0FBED6
:1055C000CDBFDF91CF910895CF93DF93CDB7DEB7F5
:1055D00029970FB6F894DEBF0FBECDBF9C838B8397
:1055E0007E836D8358874F8329871A8219828B8126
:1055F0009C810E94F4299A83898389819A810097EA
:1056000031F48B819C810E940B299A838983E981E3
:10561000FA8183858470882309F1E981FA81828186
:1056200093812F813885BC01C9010E94DA2C88231F
:10563000A9F4E981FA81228133818F819885281725
:105640003907A1F5E981FA8183858270882331F0D9
:10565000E981FA8194818985891740F5E981FA8188
:105660008B819C8191838083E981FA818F819885E8
:1056700093838283E981FA8189858483E981FA8130
:105680008D819E8196838583E981FA8110861782B8
:10569000E981FA8112861186E981FA818385846025
:1056A0008387E981FA8183858260838729960FB693
:1056B000F894DEBF0FBECDBFDF91CF910895CF9399
:1056C000DF93CDB7DEB71092C30B1092C20BDF9100
:1056D000CF910895CF93DF93CDB7DEB728970FB65C
:1056E000F894DEBF0FBECDBF9C838B837E836D831A
:1056F00058874F830E942C2C8AE090E00E94112D45
:105700009A83898389819A81009741F1E981FA819D
:105710008D819E81938382830E94410DDC01CB01A8
:10572000E981FA8197838683E981FA818F8198855F
:1057300095838483E981FA818B819C819183808325
:105740008091C20B9091C30BE981FA819187808788
:1057500089819A819093C30B8093C20B28960FB6D0
:10576000F894DEBF0FBECDBFDF91CF910895CF93E8
:10577000DF93CDB7DEB728970FB6F894DEBF0FBE24
:10578000CDBF9C838B837E836D838091C20B909170
:10579000C30B9A8389831DC0E981FA8120813181FD
:1057A0008B819C812817390771F4E981FA81248162
:1057B00035818D819E812817390729F489819A8145
:1057C00098878F830CC0E981FA81808591859A83BF
:1057D000898389819A810097F9F618861F828F81C3
:1057E000988528960FB6F894DEBF0FBECDBFDF9127
:1057F000CF910895CF93DF93CDB7DEB724970FB63F
:10580000F894DEBF0FBECDBF8091C20B9091C30B49
:105810009C838B831A8219820EC08B819C819A8310
:105820008983EB81FC81808591859C838B83898131
:105830009A810E94B42D8B819C81009771F7109200
:10584000C30B1092C20B24960FB6F894DEBF0FBEA6
:10585000CDBFDF91CF910895EF92FF920F931F93E9
:10586000CF93DF93CDB7DEB726970FB6F894DEBFA0
:105870000FBECDBF8091C20B9091C30B9E838D83D1
:105880001C821B821A82198248C00E94410D9B0112
:10589000AC01ED81FE8186819781AA27BB27790122
:1058A0008A01E81AF90A0A0B1B0BD801C7018233D7
:1058B0009105A105B10538F18D819E819A83898377
:1058C0002091C20B3091C30B8D819E81821793076B
:1058D00049F4ED81FE81808591859093C30B80937F
:1058E000C20B08C0ED81FE8180859185EB81FC8132
:1058F0009187808789819A810E94B42D8EE197E0FB
:105900000E944B0513C08D819E819C838B83ED810A
:10591000FE81808591859E838D838D819E810097F8
:1059200009F0B3CF8DE297E00E944B0526960FB6A3
:10593000F894DEBF0FBECDBFDF91CF911F910F91C5
:10594000FF90EF900895CF93DF93CDB7DEB72A97FE
:105950000FB6F894DEBF0FBECDBF9E838D837887D0
:105960006F83CE0105969C838B83CE0107969A8325
:105970008983EB81FC8120813181E981FA818081F9
:105980009181A901481B590BCA01181619061CF46C
:105990001A86198604C081E090E09A8789878985F4
:1059A0009A852A960FB6F894DEBF0FBECDBFDF9161
:1059B000CF910895CF93DF93CDB7DEB72A970FB677
:1059C000F894DEBF0FBECDBF9E838D8378876F8333
:1059D000CE0105969C838B83CE0107969A8389839B
:1059E000EB81FC8120813181E981FA818081918183
:1059F000A901481B590BCA01181619061CF01A8672
:105A0000198604C081E090E09A87898789859A8504
:105A10002A960FB6F894DEBF0FBECDBFDF91CF91AF
:105A20000895CF93DF93AC01029710F442E050E069
:105A3000A091EB0BB091EC0BFD01C0E0D0E020E0B9
:105A400030E020C0808191818417950769F48281BC
:105A50009381209719F09B838A8304C09093EC0B69
:105A60008093EB0BCF0132C04817590738F421154A
:105A7000310519F08217930708F49C01EF010280A9
:105A8000F381E02D3097F1F62115310589F1C90137
:105A9000841B950B049708F4A901E0E0F0E026C010
:105AA0008D919C91119782179307E9F44817590734
:105AB00079F4ED018A819B81309719F09383828379
:105AC00004C09093EC0B8093EB0BCD01029649C080
:105AD000841B950BFD01E80FF91F41935193029729
